{
	"Auction.sol": {
		"Auction": {
			"abi": [
				{
					"inputs": [],
					"stateMutability": "nonpayable",
					"type": "constructor"
				},
				{
					"inputs": [],
					"name": "auctionState",
					"outputs": [
						{
							"internalType": "enum Auction.State",
							"name": "",
							"type": "uint8"
						}
					],
					"stateMutability": "view",
					"type": "function"
				},
				{
					"inputs": [
						{
							"internalType": "address",
							"name": "",
							"type": "address"
						}
					],
					"name": "bids",
					"outputs": [
						{
							"internalType": "uint256",
							"name": "",
							"type": "uint256"
						}
					],
					"stateMutability": "view",
					"type": "function"
				},
				{
					"inputs": [],
					"name": "cancelAuction",
					"outputs": [],
					"stateMutability": "view",
					"type": "function"
				},
				{
					"inputs": [],
					"name": "endBlock",
					"outputs": [
						{
							"internalType": "uint256",
							"name": "",
							"type": "uint256"
						}
					],
					"stateMutability": "view",
					"type": "function"
				},
				{
					"inputs": [],
					"name": "finalizeAuction",
					"outputs": [],
					"stateMutability": "nonpayable",
					"type": "function"
				},
				{
					"inputs": [],
					"name": "highestBidder",
					"outputs": [
						{
							"internalType": "address payable",
							"name": "",
							"type": "address"
						}
					],
					"stateMutability": "view",
					"type": "function"
				},
				{
					"inputs": [],
					"name": "highestBindingBid",
					"outputs": [
						{
							"internalType": "uint256",
							"name": "",
							"type": "uint256"
						}
					],
					"stateMutability": "view",
					"type": "function"
				},
				{
					"inputs": [],
					"name": "ipfsHash",
					"outputs": [
						{
							"internalType": "string",
							"name": "",
							"type": "string"
						}
					],
					"stateMutability": "view",
					"type": "function"
				},
				{
					"inputs": [],
					"name": "owner",
					"outputs": [
						{
							"internalType": "address payable",
							"name": "",
							"type": "address"
						}
					],
					"stateMutability": "view",
					"type": "function"
				},
				{
					"inputs": [],
					"name": "placeBid",
					"outputs": [],
					"stateMutability": "payable",
					"type": "function"
				},
				{
					"inputs": [],
					"name": "startBlock",
					"outputs": [
						{
							"internalType": "uint256",
							"name": "",
							"type": "uint256"
						}
					],
					"stateMutability": "view",
					"type": "function"
				}
			],
			"devdoc": {
				"kind": "dev",
				"methods": {},
				"version": 1
			},
			"evm": {
				"assembly": "    /* \"Auction.sol\":57:4772  contract Auction{... */\n  mstore(0x40, 0x80)\n    /* \"Auction.sol\":814:1366  constructor(){... */\n  callvalue\n  dup1\n  iszero\n  tag_1\n  jumpi\n  0x00\n  dup1\n  revert\ntag_1:\n  pop\n    /* \"Auction.sol\":853:863  msg.sender */\n  caller\n    /* \"Auction.sol\":837:842  owner */\n  0x00\n  dup1\n    /* \"Auction.sol\":837:864  owner = payable(msg.sender) */\n  0x0100\n  exp\n  dup2\n  sload\n  dup2\n  0xffffffffffffffffffffffffffffffffffffffff\n  mul\n  not\n  and\n  swap1\n  dup4\n  0xffffffffffffffffffffffffffffffffffffffff\n  and\n  mul\n  or\n  swap1\n  sstore\n  pop\n    /* \"Auction.sol\":889:902  State.Running */\n  0x01\n    /* \"Auction.sol\":874:886  auctionState */\n  0x04\n  0x00\n    /* \"Auction.sol\":874:902  auctionState = State.Running */\n  0x0100\n  exp\n  dup2\n  sload\n  dup2\n  0xff\n  mul\n  not\n  and\n  swap1\n  dup4\n  0x03\n  dup2\n  gt\n  iszero\n  tag_4\n  jumpi\n  tag_5\n  tag_6\n  jump\t// in\ntag_5:\ntag_4:\n  mul\n  or\n  swap1\n  sstore\n  pop\n    /* \"Auction.sol\":1091:1103  block.number */\n  number\n    /* \"Auction.sol\":1078:1088  startBlock */\n  0x01\n    /* \"Auction.sol\":1078:1103  startBlock = block.number */\n  dup2\n  swap1\n  sstore\n  pop\n    /* \"Auction.sol\":1222:1227  40320 */\n  0x9d80\n    /* \"Auction.sol\":1209:1219  startBlock */\n  sload(0x01)\n    /* \"Auction.sol\":1209:1227  startBlock + 40320 */\n  tag_7\n  swap2\n  swap1\n  tag_8\n  jump\t// in\ntag_7:\n    /* \"Auction.sol\":1198:1206  endBlock */\n  0x02\n    /* \"Auction.sol\":1198:1227  endBlock = startBlock + 40320 */\n  dup2\n  swap1\n  sstore\n  pop\n    /* \"Auction.sol\":1318:1331  ipfsHash = \"\" */\n  mload(0x40)\n  dup1\n  0x20\n  add\n  0x40\n  mstore\n  dup1\n  0x00\n  dup2\n  mstore\n  pop\n    /* \"Auction.sol\":1318:1326  ipfsHash */\n  0x03\n    /* \"Auction.sol\":1318:1331  ipfsHash = \"\" */\n  swap1\n  dup2\n  tag_9\n  swap2\n  swap1\n  tag_10\n  jump\t// in\ntag_9:\n  pop\n    /* \"Auction.sol\":1356:1359  100 */\n  0x64\n    /* \"Auction.sol\":1341:1353  bidIncrement */\n  0x08\n    /* \"Auction.sol\":1341:1359  bidIncrement = 100 */\n  dup2\n  swap1\n  sstore\n  pop\n    /* \"Auction.sol\":57:4772  contract Auction{... */\n  jump(tag_11)\n    /* \"#utility.yul\":7:187   */\ntag_6:\n    /* \"#utility.yul\":55:132   */\n  0x4e487b7100000000000000000000000000000000000000000000000000000000\n    /* \"#utility.yul\":52:53   */\n  0x00\n    /* \"#utility.yul\":45:133   */\n  mstore\n    /* \"#utility.yul\":152:156   */\n  0x21\n    /* \"#utility.yul\":149:150   */\n  0x04\n    /* \"#utility.yul\":142:157   */\n  mstore\n    /* \"#utility.yul\":176:180   */\n  0x24\n    /* \"#utility.yul\":173:174   */\n  0x00\n    /* \"#utility.yul\":166:181   */\n  revert\n    /* \"#utility.yul\":193:270   */\ntag_12:\n    /* \"#utility.yul\":230:237   */\n  0x00\n    /* \"#utility.yul\":259:264   */\n  dup2\n    /* \"#utility.yul\":248:264   */\n  swap1\n  pop\n    /* \"#utility.yul\":193:270   */\n  swap2\n  swap1\n  pop\n  jump\t// out\n    /* \"#utility.yul\":276:456   */\ntag_13:\n    /* \"#utility.yul\":324:401   */\n  0x4e487b7100000000000000000000000000000000000000000000000000000000\n    /* \"#utility.yul\":321:322   */\n  0x00\n    /* \"#utility.yul\":314:402   */\n  mstore\n    /* \"#utility.yul\":421:425   */\n  0x11\n    /* \"#utility.yul\":418:419   */\n  0x04\n    /* \"#utility.yul\":411:426   */\n  mstore\n    /* \"#utility.yul\":445:449   */\n  0x24\n    /* \"#utility.yul\":442:443   */\n  0x00\n    /* \"#utility.yul\":435:450   */\n  revert\n    /* \"#utility.yul\":462:653   */\ntag_8:\n    /* \"#utility.yul\":502:505   */\n  0x00\n    /* \"#utility.yul\":521:541   */\n  tag_38\n    /* \"#utility.yul\":539:540   */\n  dup3\n    /* \"#utility.yul\":521:541   */\n  tag_12\n  jump\t// in\ntag_38:\n    /* \"#utility.yul\":516:541   */\n  swap2\n  pop\n    /* \"#utility.yul\":555:575   */\n  tag_39\n    /* \"#utility.yul\":573:574   */\n  dup4\n    /* \"#utility.yul\":555:575   */\n  tag_12\n  jump\t// in\ntag_39:\n    /* \"#utility.yul\":550:575   */\n  swap3\n  pop\n    /* \"#utility.yul\":598:599   */\n  dup3\n    /* \"#utility.yul\":595:596   */\n  dup3\n    /* \"#utility.yul\":591:600   */\n  add\n    /* \"#utility.yul\":584:600   */\n  swap1\n  pop\n    /* \"#utility.yul\":619:622   */\n  dup1\n    /* \"#utility.yul\":616:617   */\n  dup3\n    /* \"#utility.yul\":613:623   */\n  gt\n    /* \"#utility.yul\":610:646   */\n  iszero\n  tag_40\n  jumpi\n    /* \"#utility.yul\":626:644   */\n  tag_41\n  tag_13\n  jump\t// in\ntag_41:\n    /* \"#utility.yul\":610:646   */\ntag_40:\n    /* \"#utility.yul\":462:653   */\n  swap3\n  swap2\n  pop\n  pop\n  jump\t// out\n    /* \"#utility.yul\":659:758   */\ntag_14:\n    /* \"#utility.yul\":711:717   */\n  0x00\n    /* \"#utility.yul\":745:750   */\n  dup2\n    /* \"#utility.yul\":739:751   */\n  mload\n    /* \"#utility.yul\":729:751   */\n  swap1\n  pop\n    /* \"#utility.yul\":659:758   */\n  swap2\n  swap1\n  pop\n  jump\t// out\n    /* \"#utility.yul\":764:944   */\ntag_15:\n    /* \"#utility.yul\":812:889   */\n  0x4e487b7100000000000000000000000000000000000000000000000000000000\n    /* \"#utility.yul\":809:810   */\n  0x00\n    /* \"#utility.yul\":802:890   */\n  mstore\n    /* \"#utility.yul\":909:913   */\n  0x41\n    /* \"#utility.yul\":906:907   */\n  0x04\n    /* \"#utility.yul\":899:914   */\n  mstore\n    /* \"#utility.yul\":933:937   */\n  0x24\n    /* \"#utility.yul\":930:931   */\n  0x00\n    /* \"#utility.yul\":923:938   */\n  revert\n    /* \"#utility.yul\":950:1130   */\ntag_16:\n    /* \"#utility.yul\":998:1075   */\n  0x4e487b7100000000000000000000000000000000000000000000000000000000\n    /* \"#utility.yul\":995:996   */\n  0x00\n    /* \"#utility.yul\":988:1076   */\n  mstore\n    /* \"#utility.yul\":1095:1099   */\n  0x22\n    /* \"#utility.yul\":1092:1093   */\n  0x04\n    /* \"#utility.yul\":1085:1100   */\n  mstore\n    /* \"#utility.yul\":1119:1123   */\n  0x24\n    /* \"#utility.yul\":1116:1117   */\n  0x00\n    /* \"#utility.yul\":1109:1124   */\n  revert\n    /* \"#utility.yul\":1136:1456   */\ntag_17:\n    /* \"#utility.yul\":1180:1186   */\n  0x00\n    /* \"#utility.yul\":1217:1218   */\n  0x02\n    /* \"#utility.yul\":1211:1215   */\n  dup3\n    /* \"#utility.yul\":1207:1219   */\n  div\n    /* \"#utility.yul\":1197:1219   */\n  swap1\n  pop\n    /* \"#utility.yul\":1264:1265   */\n  0x01\n    /* \"#utility.yul\":1258:1262   */\n  dup3\n    /* \"#utility.yul\":1254:1266   */\n  and\n    /* \"#utility.yul\":1285:1303   */\n  dup1\n    /* \"#utility.yul\":1275:1356   */\n  tag_46\n  jumpi\n    /* \"#utility.yul\":1341:1345   */\n  0x7f\n    /* \"#utility.yul\":1333:1339   */\n  dup3\n    /* \"#utility.yul\":1329:1346   */\n  and\n    /* \"#utility.yul\":1319:1346   */\n  swap2\n  pop\n    /* \"#utility.yul\":1275:1356   */\ntag_46:\n    /* \"#utility.yul\":1403:1405   */\n  0x20\n    /* \"#utility.yul\":1395:1401   */\n  dup3\n    /* \"#utility.yul\":1392:1406   */\n  lt\n    /* \"#utility.yul\":1372:1390   */\n  dup2\n    /* \"#utility.yul\":1369:1407   */\n  sub\n    /* \"#utility.yul\":1366:1450   */\n  tag_47\n  jumpi\n    /* \"#utility.yul\":1422:1440   */\n  tag_48\n  tag_16\n  jump\t// in\ntag_48:\n    /* \"#utility.yul\":1366:1450   */\ntag_47:\n    /* \"#utility.yul\":1187:1456   */\n  pop\n    /* \"#utility.yul\":1136:1456   */\n  swap2\n  swap1\n  pop\n  jump\t// out\n    /* \"#utility.yul\":1462:1603   */\ntag_18:\n    /* \"#utility.yul\":1511:1515   */\n  0x00\n    /* \"#utility.yul\":1534:1537   */\n  dup2\n    /* \"#utility.yul\":1526:1537   */\n  swap1\n  pop\n    /* \"#utility.yul\":1557:1560   */\n  dup2\n    /* \"#utility.yul\":1554:1555   */\n  0x00\n    /* \"#utility.yul\":1547:1561   */\n  mstore\n    /* \"#utility.yul\":1591:1595   */\n  0x20\n    /* \"#utility.yul\":1588:1589   */\n  0x00\n    /* \"#utility.yul\":1578:1596   */\n  keccak256\n    /* \"#utility.yul\":1570:1596   */\n  swap1\n  pop\n    /* \"#utility.yul\":1462:1603   */\n  swap2\n  swap1\n  pop\n  jump\t// out\n    /* \"#utility.yul\":1609:1702   */\ntag_19:\n    /* \"#utility.yul\":1646:1652   */\n  0x00\n    /* \"#utility.yul\":1693:1695   */\n  0x20\n    /* \"#utility.yul\":1688:1690   */\n  0x1f\n    /* \"#utility.yul\":1681:1686   */\n  dup4\n    /* \"#utility.yul\":1677:1691   */\n  add\n    /* \"#utility.yul\":1673:1696   */\n  div\n    /* \"#utility.yul\":1663:1696   */\n  swap1\n  pop\n    /* \"#utility.yul\":1609:1702   */\n  swap2\n  swap1\n  pop\n  jump\t// out\n    /* \"#utility.yul\":1708:1815   */\ntag_20:\n    /* \"#utility.yul\":1752:1760   */\n  0x00\n    /* \"#utility.yul\":1802:1807   */\n  dup3\n    /* \"#utility.yul\":1796:1800   */\n  dup3\n    /* \"#utility.yul\":1792:1808   */\n  shl\n    /* \"#utility.yul\":1771:1808   */\n  swap1\n  pop\n    /* \"#utility.yul\":1708:1815   */\n  swap3\n  swap2\n  pop\n  pop\n  jump\t// out\n    /* \"#utility.yul\":1821:2214   */\ntag_21:\n    /* \"#utility.yul\":1890:1896   */\n  0x00\n    /* \"#utility.yul\":1940:1941   */\n  0x08\n    /* \"#utility.yul\":1928:1938   */\n  dup4\n    /* \"#utility.yul\":1924:1942   */\n  mul\n    /* \"#utility.yul\":1963:2060   */\n  tag_53\n    /* \"#utility.yul\":1993:2059   */\n  0xffffffffffffffffffffffffffffffffffffffffffffffffffffffffffffffff\n    /* \"#utility.yul\":1982:1991   */\n  dup3\n    /* \"#utility.yul\":1963:2060   */\n  tag_20\n  jump\t// in\ntag_53:\n    /* \"#utility.yul\":2081:2120   */\n  tag_54\n    /* \"#utility.yul\":2111:2119   */\n  dup7\n    /* \"#utility.yul\":2100:2109   */\n  dup4\n    /* \"#utility.yul\":2081:2120   */\n  tag_20\n  jump\t// in\ntag_54:\n    /* \"#utility.yul\":2069:2120   */\n  swap6\n  pop\n    /* \"#utility.yul\":2153:2157   */\n  dup1\n    /* \"#utility.yul\":2149:2158   */\n  not\n    /* \"#utility.yul\":2142:2147   */\n  dup5\n    /* \"#utility.yul\":2138:2159   */\n  and\n    /* \"#utility.yul\":2129:2159   */\n  swap4\n  pop\n    /* \"#utility.yul\":2202:2206   */\n  dup1\n    /* \"#utility.yul\":2192:2200   */\n  dup7\n    /* \"#utility.yul\":2188:2207   */\n  and\n    /* \"#utility.yul\":2181:2186   */\n  dup5\n    /* \"#utility.yul\":2178:2208   */\n  or\n    /* \"#utility.yul\":2168:2208   */\n  swap3\n  pop\n    /* \"#utility.yul\":1897:2214   */\n  pop\n  pop\n    /* \"#utility.yul\":1821:2214   */\n  swap4\n  swap3\n  pop\n  pop\n  pop\n  jump\t// out\n    /* \"#utility.yul\":2220:2280   */\ntag_22:\n    /* \"#utility.yul\":2248:2251   */\n  0x00\n    /* \"#utility.yul\":2269:2274   */\n  dup2\n    /* \"#utility.yul\":2262:2274   */\n  swap1\n  pop\n    /* \"#utility.yul\":2220:2280   */\n  swap2\n  swap1\n  pop\n  jump\t// out\n    /* \"#utility.yul\":2286:2428   */\ntag_23:\n    /* \"#utility.yul\":2336:2345   */\n  0x00\n    /* \"#utility.yul\":2369:2422   */\n  tag_57\n    /* \"#utility.yul\":2387:2421   */\n  tag_58\n    /* \"#utility.yul\":2396:2420   */\n  tag_59\n    /* \"#utility.yul\":2414:2419   */\n  dup5\n    /* \"#utility.yul\":2396:2420   */\n  tag_12\n  jump\t// in\ntag_59:\n    /* \"#utility.yul\":2387:2421   */\n  tag_22\n  jump\t// in\ntag_58:\n    /* \"#utility.yul\":2369:2422   */\n  tag_12\n  jump\t// in\ntag_57:\n    /* \"#utility.yul\":2356:2422   */\n  swap1\n  pop\n    /* \"#utility.yul\":2286:2428   */\n  swap2\n  swap1\n  pop\n  jump\t// out\n    /* \"#utility.yul\":2434:2509   */\ntag_24:\n    /* \"#utility.yul\":2477:2480   */\n  0x00\n    /* \"#utility.yul\":2498:2503   */\n  dup2\n    /* \"#utility.yul\":2491:2503   */\n  swap1\n  pop\n    /* \"#utility.yul\":2434:2509   */\n  swap2\n  swap1\n  pop\n  jump\t// out\n    /* \"#utility.yul\":2515:2784   */\ntag_25:\n    /* \"#utility.yul\":2625:2664   */\n  tag_62\n    /* \"#utility.yul\":2656:2663   */\n  dup4\n    /* \"#utility.yul\":2625:2664   */\n  tag_23\n  jump\t// in\ntag_62:\n    /* \"#utility.yul\":2686:2777   */\n  tag_63\n    /* \"#utility.yul\":2735:2776   */\n  tag_64\n    /* \"#utility.yul\":2759:2775   */\n  dup3\n    /* \"#utility.yul\":2735:2776   */\n  tag_24\n  jump\t// in\ntag_64:\n    /* \"#utility.yul\":2727:2733   */\n  dup5\n    /* \"#utility.yul\":2720:2724   */\n  dup5\n    /* \"#utility.yul\":2714:2725   */\n  sload\n    /* \"#utility.yul\":2686:2777   */\n  tag_21\n  jump\t// in\ntag_63:\n    /* \"#utility.yul\":2680:2684   */\n  dup3\n    /* \"#utility.yul\":2673:2778   */\n  sstore\n    /* \"#utility.yul\":2591:2784   */\n  pop\n    /* \"#utility.yul\":2515:2784   */\n  pop\n  pop\n  pop\n  jump\t// out\n    /* \"#utility.yul\":2790:2863   */\ntag_26:\n    /* \"#utility.yul\":2835:2838   */\n  0x00\n    /* \"#utility.yul\":2790:2863   */\n  swap1\n  jump\t// out\n    /* \"#utility.yul\":2869:3058   */\ntag_27:\n    /* \"#utility.yul\":2946:2978   */\n  tag_67\n  tag_26\n  jump\t// in\ntag_67:\n    /* \"#utility.yul\":2987:3052   */\n  tag_68\n    /* \"#utility.yul\":3045:3051   */\n  dup2\n    /* \"#utility.yul\":3037:3043   */\n  dup5\n    /* \"#utility.yul\":3031:3035   */\n  dup5\n    /* \"#utility.yul\":2987:3052   */\n  tag_25\n  jump\t// in\ntag_68:\n    /* \"#utility.yul\":2922:3058   */\n  pop\n    /* \"#utility.yul\":2869:3058   */\n  pop\n  pop\n  jump\t// out\n    /* \"#utility.yul\":3064:3250   */\ntag_28:\n    /* \"#utility.yul\":3124:3244   */\ntag_70:\n    /* \"#utility.yul\":3141:3144   */\n  dup2\n    /* \"#utility.yul\":3134:3139   */\n  dup2\n    /* \"#utility.yul\":3131:3145   */\n  lt\n    /* \"#utility.yul\":3124:3244   */\n  iszero\n  tag_72\n  jumpi\n    /* \"#utility.yul\":3195:3234   */\n  tag_73\n    /* \"#utility.yul\":3232:3233   */\n  0x00\n    /* \"#utility.yul\":3225:3230   */\n  dup3\n    /* \"#utility.yul\":3195:3234   */\n  tag_27\n  jump\t// in\ntag_73:\n    /* \"#utility.yul\":3168:3169   */\n  0x01\n    /* \"#utility.yul\":3161:3166   */\n  dup2\n    /* \"#utility.yul\":3157:3170   */\n  add\n    /* \"#utility.yul\":3148:3170   */\n  swap1\n  pop\n    /* \"#utility.yul\":3124:3244   */\n  jump(tag_70)\ntag_72:\n    /* \"#utility.yul\":3064:3250   */\n  pop\n  pop\n  jump\t// out\n    /* \"#utility.yul\":3256:3799   */\ntag_29:\n    /* \"#utility.yul\":3357:3359   */\n  0x1f\n    /* \"#utility.yul\":3352:3355   */\n  dup3\n    /* \"#utility.yul\":3349:3360   */\n  gt\n    /* \"#utility.yul\":3346:3792   */\n  iszero\n  tag_75\n  jumpi\n    /* \"#utility.yul\":3391:3429   */\n  tag_76\n    /* \"#utility.yul\":3423:3428   */\n  dup2\n    /* \"#utility.yul\":3391:3429   */\n  tag_18\n  jump\t// in\ntag_76:\n    /* \"#utility.yul\":3475:3504   */\n  tag_77\n    /* \"#utility.yul\":3493:3503   */\n  dup5\n    /* \"#utility.yul\":3475:3504   */\n  tag_19\n  jump\t// in\ntag_77:\n    /* \"#utility.yul\":3465:3473   */\n  dup2\n    /* \"#utility.yul\":3461:3505   */\n  add\n    /* \"#utility.yul\":3658:3660   */\n  0x20\n    /* \"#utility.yul\":3646:3656   */\n  dup6\n    /* \"#utility.yul\":3643:3661   */\n  lt\n    /* \"#utility.yul\":3640:3689   */\n  iszero\n  tag_78\n  jumpi\n    /* \"#utility.yul\":3679:3687   */\n  dup2\n    /* \"#utility.yul\":3664:3687   */\n  swap1\n  pop\n    /* \"#utility.yul\":3640:3689   */\ntag_78:\n    /* \"#utility.yul\":3702:3782   */\n  tag_79\n    /* \"#utility.yul\":3758:3780   */\n  tag_80\n    /* \"#utility.yul\":3776:3779   */\n  dup6\n    /* \"#utility.yul\":3758:3780   */\n  tag_19\n  jump\t// in\ntag_80:\n    /* \"#utility.yul\":3748:3756   */\n  dup4\n    /* \"#utility.yul\":3744:3781   */\n  add\n    /* \"#utility.yul\":3731:3742   */\n  dup3\n    /* \"#utility.yul\":3702:3782   */\n  tag_28\n  jump\t// in\ntag_79:\n    /* \"#utility.yul\":3361:3792   */\n  pop\n  pop\n    /* \"#utility.yul\":3346:3792   */\ntag_75:\n    /* \"#utility.yul\":3256:3799   */\n  pop\n  pop\n  pop\n  jump\t// out\n    /* \"#utility.yul\":3805:3922   */\ntag_30:\n    /* \"#utility.yul\":3859:3867   */\n  0x00\n    /* \"#utility.yul\":3909:3914   */\n  dup3\n    /* \"#utility.yul\":3903:3907   */\n  dup3\n    /* \"#utility.yul\":3899:3915   */\n  shr\n    /* \"#utility.yul\":3878:3915   */\n  swap1\n  pop\n    /* \"#utility.yul\":3805:3922   */\n  swap3\n  swap2\n  pop\n  pop\n  jump\t// out\n    /* \"#utility.yul\":3928:4097   */\ntag_31:\n    /* \"#utility.yul\":3972:3978   */\n  0x00\n    /* \"#utility.yul\":4005:4056   */\n  tag_83\n    /* \"#utility.yul\":4053:4054   */\n  0x00\n    /* \"#utility.yul\":4049:4055   */\n  not\n    /* \"#utility.yul\":4041:4046   */\n  dup5\n    /* \"#utility.yul\":4038:4039   */\n  0x08\n    /* \"#utility.yul\":4034:4047   */\n  mul\n    /* \"#utility.yul\":4005:4056   */\n  tag_30\n  jump\t// in\ntag_83:\n    /* \"#utility.yul\":4001:4057   */\n  not\n    /* \"#utility.yul\":4086:4090   */\n  dup1\n    /* \"#utility.yul\":4080:4084   */\n  dup4\n    /* \"#utility.yul\":4076:4091   */\n  and\n    /* \"#utility.yul\":4066:4091   */\n  swap2\n  pop\n    /* \"#utility.yul\":3979:4097   */\n  pop\n    /* \"#utility.yul\":3928:4097   */\n  swap3\n  swap2\n  pop\n  pop\n  jump\t// out\n    /* \"#utility.yul\":4102:4397   */\ntag_32:\n    /* \"#utility.yul\":4178:4182   */\n  0x00\n    /* \"#utility.yul\":4324:4353   */\n  tag_85\n    /* \"#utility.yul\":4349:4352   */\n  dup4\n    /* \"#utility.yul\":4343:4347   */\n  dup4\n    /* \"#utility.yul\":4324:4353   */\n  tag_31\n  jump\t// in\ntag_85:\n    /* \"#utility.yul\":4316:4353   */\n  swap2\n  pop\n    /* \"#utility.yul\":4386:4389   */\n  dup3\n    /* \"#utility.yul\":4383:4384   */\n  0x02\n    /* \"#utility.yul\":4379:4390   */\n  mul\n    /* \"#utility.yul\":4373:4377   */\n  dup3\n    /* \"#utility.yul\":4370:4391   */\n  or\n    /* \"#utility.yul\":4362:4391   */\n  swap1\n  pop\n    /* \"#utility.yul\":4102:4397   */\n  swap3\n  swap2\n  pop\n  pop\n  jump\t// out\n    /* \"#utility.yul\":4402:5797   */\ntag_10:\n    /* \"#utility.yul\":4519:4556   */\n  tag_87\n    /* \"#utility.yul\":4552:4555   */\n  dup3\n    /* \"#utility.yul\":4519:4556   */\n  tag_14\n  jump\t// in\ntag_87:\n    /* \"#utility.yul\":4621:4639   */\n  0xffffffffffffffff\n    /* \"#utility.yul\":4613:4619   */\n  dup2\n    /* \"#utility.yul\":4610:4640   */\n  gt\n    /* \"#utility.yul\":4607:4663   */\n  iszero\n  tag_88\n  jumpi\n    /* \"#utility.yul\":4643:4661   */\n  tag_89\n  tag_15\n  jump\t// in\ntag_89:\n    /* \"#utility.yul\":4607:4663   */\ntag_88:\n    /* \"#utility.yul\":4687:4725   */\n  tag_90\n    /* \"#utility.yul\":4719:4723   */\n  dup3\n    /* \"#utility.yul\":4713:4724   */\n  sload\n    /* \"#utility.yul\":4687:4725   */\n  tag_17\n  jump\t// in\ntag_90:\n    /* \"#utility.yul\":4772:4839   */\n  tag_91\n    /* \"#utility.yul\":4832:4838   */\n  dup3\n    /* \"#utility.yul\":4824:4830   */\n  dup3\n    /* \"#utility.yul\":4818:4822   */\n  dup6\n    /* \"#utility.yul\":4772:4839   */\n  tag_29\n  jump\t// in\ntag_91:\n    /* \"#utility.yul\":4866:4867   */\n  0x00\n    /* \"#utility.yul\":4890:4894   */\n  0x20\n    /* \"#utility.yul\":4877:4894   */\n  swap1\n  pop\n    /* \"#utility.yul\":4922:4924   */\n  0x1f\n    /* \"#utility.yul\":4914:4920   */\n  dup4\n    /* \"#utility.yul\":4911:4925   */\n  gt\n    /* \"#utility.yul\":4939:4940   */\n  0x01\n    /* \"#utility.yul\":4934:5552   */\n  dup2\n  eq\n  tag_93\n  jumpi\n    /* \"#utility.yul\":5596:5597   */\n  0x00\n    /* \"#utility.yul\":5613:5619   */\n  dup5\n    /* \"#utility.yul\":5610:5687   */\n  iszero\n  tag_94\n  jumpi\n    /* \"#utility.yul\":5662:5671   */\n  dup3\n    /* \"#utility.yul\":5657:5660   */\n  dup8\n    /* \"#utility.yul\":5653:5672   */\n  add\n    /* \"#utility.yul\":5647:5673   */\n  mload\n    /* \"#utility.yul\":5638:5673   */\n  swap1\n  pop\n    /* \"#utility.yul\":5610:5687   */\ntag_94:\n    /* \"#utility.yul\":5713:5780   */\n  tag_95\n    /* \"#utility.yul\":5773:5779   */\n  dup6\n    /* \"#utility.yul\":5766:5771   */\n  dup3\n    /* \"#utility.yul\":5713:5780   */\n  tag_32\n  jump\t// in\ntag_95:\n    /* \"#utility.yul\":5707:5711   */\n  dup7\n    /* \"#utility.yul\":5700:5781   */\n  sstore\n    /* \"#utility.yul\":5569:5791   */\n  pop\n    /* \"#utility.yul\":4904:5791   */\n  jump(tag_92)\n    /* \"#utility.yul\":4934:5552   */\ntag_93:\n    /* \"#utility.yul\":4986:4990   */\n  0x1f\n    /* \"#utility.yul\":4982:4991   */\n  not\n    /* \"#utility.yul\":4974:4980   */\n  dup5\n    /* \"#utility.yul\":4970:4992   */\n  and\n    /* \"#utility.yul\":5020:5057   */\n  tag_96\n    /* \"#utility.yul\":5052:5056   */\n  dup7\n    /* \"#utility.yul\":5020:5057   */\n  tag_18\n  jump\t// in\ntag_96:\n    /* \"#utility.yul\":5079:5080   */\n  0x00\n    /* \"#utility.yul\":5093:5301   */\ntag_97:\n    /* \"#utility.yul\":5107:5114   */\n  dup3\n    /* \"#utility.yul\":5104:5105   */\n  dup2\n    /* \"#utility.yul\":5101:5115   */\n  lt\n    /* \"#utility.yul\":5093:5301   */\n  iszero\n  tag_99\n  jumpi\n    /* \"#utility.yul\":5186:5195   */\n  dup5\n    /* \"#utility.yul\":5181:5184   */\n  dup10\n    /* \"#utility.yul\":5177:5196   */\n  add\n    /* \"#utility.yul\":5171:5197   */\n  mload\n    /* \"#utility.yul\":5163:5169   */\n  dup3\n    /* \"#utility.yul\":5156:5198   */\n  sstore\n    /* \"#utility.yul\":5237:5238   */\n  0x01\n    /* \"#utility.yul\":5229:5235   */\n  dup3\n    /* \"#utility.yul\":5225:5239   */\n  add\n    /* \"#utility.yul\":5215:5239   */\n  swap2\n  pop\n    /* \"#utility.yul\":5284:5286   */\n  0x20\n    /* \"#utility.yul\":5273:5282   */\n  dup6\n    /* \"#utility.yul\":5269:5287   */\n  add\n    /* \"#utility.yul\":5256:5287   */\n  swap5\n  pop\n    /* \"#utility.yul\":5130:5134   */\n  0x20\n    /* \"#utility.yul\":5127:5128   */\n  dup2\n    /* \"#utility.yul\":5123:5135   */\n  add\n    /* \"#utility.yul\":5118:5135   */\n  swap1\n  pop\n    /* \"#utility.yul\":5093:5301   */\n  jump(tag_97)\ntag_99:\n    /* \"#utility.yul\":5329:5335   */\n  dup7\n    /* \"#utility.yul\":5320:5327   */\n  dup4\n    /* \"#utility.yul\":5317:5336   */\n  lt\n    /* \"#utility.yul\":5314:5493   */\n  iszero\n  tag_100\n  jumpi\n    /* \"#utility.yul\":5387:5396   */\n  dup5\n    /* \"#utility.yul\":5382:5385   */\n  dup10\n    /* \"#utility.yul\":5378:5397   */\n  add\n    /* \"#utility.yul\":5372:5398   */\n  mload\n    /* \"#utility.yul\":5430:5478   */\n  tag_101\n    /* \"#utility.yul\":5472:5476   */\n  0x1f\n    /* \"#utility.yul\":5464:5470   */\n  dup10\n    /* \"#utility.yul\":5460:5477   */\n  and\n    /* \"#utility.yul\":5449:5458   */\n  dup3\n    /* \"#utility.yul\":5430:5478   */\n  tag_31\n  jump\t// in\ntag_101:\n    /* \"#utility.yul\":5422:5428   */\n  dup4\n    /* \"#utility.yul\":5415:5479   */\n  sstore\n    /* \"#utility.yul\":5337:5493   */\n  pop\n    /* \"#utility.yul\":5314:5493   */\ntag_100:\n    /* \"#utility.yul\":5539:5540   */\n  0x01\n    /* \"#utility.yul\":5535:5536   */\n  0x02\n    /* \"#utility.yul\":5527:5533   */\n  dup9\n    /* \"#utility.yul\":5523:5537   */\n  mul\n    /* \"#utility.yul\":5519:5541   */\n  add\n    /* \"#utility.yul\":5513:5517   */\n  dup9\n    /* \"#utility.yul\":5506:5542   */\n  sstore\n    /* \"#utility.yul\":4941:5552   */\n  pop\n  pop\n  pop\n    /* \"#utility.yul\":4904:5791   */\ntag_92:\n  pop\n    /* \"#utility.yul\":4494:5797   */\n  pop\n  pop\n  pop\n    /* \"#utility.yul\":4402:5797   */\n  pop\n  pop\n  jump\t// out\n    /* \"Auction.sol\":57:4772  contract Auction{... */\ntag_11:\n  dataSize(sub_0)\n  dup1\n  dataOffset(sub_0)\n  0x00\n  codecopy\n  0x00\n  return\nstop\n\nsub_0: assembly {\n        /* \"Auction.sol\":57:4772  contract Auction{... */\n      mstore(0x40, 0x80)\n      jumpi(tag_1, lt(calldatasize, 0x04))\n      shr(0xe0, calldataload(0x00))\n      dup1\n      0x8fa8b790\n      gt\n      tag_13\n      jumpi\n      dup1\n      0x8fa8b790\n      eq\n      tag_7\n      jumpi\n      dup1\n      0x91f90157\n      eq\n      tag_8\n      jumpi\n      dup1\n      0xc623674f\n      eq\n      tag_9\n      jumpi\n      dup1\n      0xecfc7ecc\n      eq\n      tag_10\n      jumpi\n      dup1\n      0xf5b56c56\n      eq\n      tag_11\n      jumpi\n      dup1\n      0xf77282ab\n      eq\n      tag_12\n      jumpi\n      jump(tag_1)\n    tag_13:\n      dup1\n      0x083c6323\n      eq\n      tag_2\n      jumpi\n      dup1\n      0x48cd4cb1\n      eq\n      tag_3\n      jumpi\n      dup1\n      0x62ea82db\n      eq\n      tag_4\n      jumpi\n      dup1\n      0x7fb45099\n      eq\n      tag_5\n      jumpi\n      dup1\n      0x8da5cb5b\n      eq\n      tag_6\n      jumpi\n    tag_1:\n      0x00\n      dup1\n      revert\n        /* \"Auction.sol\":206:226  uint public endBlock */\n    tag_2:\n      callvalue\n      dup1\n      iszero\n      tag_14\n      jumpi\n      0x00\n      dup1\n      revert\n    tag_14:\n      pop\n      tag_15\n      tag_16\n      jump\t// in\n    tag_15:\n      mload(0x40)\n      tag_17\n      swap2\n      swap1\n      tag_18\n      jump\t// in\n    tag_17:\n      mload(0x40)\n      dup1\n      swap2\n      sub\n      swap1\n      return\n        /* \"Auction.sol\":178:200  uint public startBlock */\n    tag_3:\n      callvalue\n      dup1\n      iszero\n      tag_19\n      jumpi\n      0x00\n      dup1\n      revert\n    tag_19:\n      pop\n      tag_20\n      tag_21\n      jump\t// in\n    tag_20:\n      mload(0x40)\n      tag_22\n      swap2\n      swap1\n      tag_18\n      jump\t// in\n    tag_22:\n      mload(0x40)\n      dup1\n      swap2\n      sub\n      swap1\n      return\n        /* \"Auction.sol\":745:784  mapping(address => uint256) public bids */\n    tag_4:\n      callvalue\n      dup1\n      iszero\n      tag_23\n      jumpi\n      0x00\n      dup1\n      revert\n    tag_23:\n      pop\n      tag_24\n      0x04\n      dup1\n      calldatasize\n      sub\n      dup2\n      add\n      swap1\n      tag_25\n      swap2\n      swap1\n      tag_26\n      jump\t// in\n    tag_25:\n      tag_27\n      jump\t// in\n    tag_24:\n      mload(0x40)\n      tag_28\n      swap2\n      swap1\n      tag_18\n      jump\t// in\n    tag_28:\n      mload(0x40)\n      dup1\n      swap2\n      sub\n      swap1\n      return\n        /* \"Auction.sol\":502:527  State public auctionState */\n    tag_5:\n      callvalue\n      dup1\n      iszero\n      tag_29\n      jumpi\n      0x00\n      dup1\n      revert\n    tag_29:\n      pop\n      tag_30\n      tag_31\n      jump\t// in\n    tag_30:\n      mload(0x40)\n      tag_32\n      swap2\n      swap1\n      tag_33\n      jump\t// in\n    tag_32:\n      mload(0x40)\n      dup1\n      swap2\n      sub\n      swap1\n      return\n        /* \"Auction.sol\":79:107  address payable public owner */\n    tag_6:\n      callvalue\n      dup1\n      iszero\n      tag_34\n      jumpi\n      0x00\n      dup1\n      revert\n    tag_34:\n      pop\n      tag_35\n      tag_36\n      jump\t// in\n    tag_35:\n      mload(0x40)\n      tag_37\n      swap2\n      swap1\n      tag_38\n      jump\t// in\n    tag_37:\n      mload(0x40)\n      dup1\n      swap2\n      sub\n      swap1\n      return\n        /* \"Auction.sol\":3143:3237  function cancelAuction() public view onlyOwner{... */\n    tag_7:\n      callvalue\n      dup1\n      iszero\n      tag_39\n      jumpi\n      0x00\n      dup1\n      revert\n    tag_39:\n      pop\n      tag_40\n      tag_41\n      jump\t// in\n    tag_40:\n      stop\n        /* \"Auction.sol\":648:684  address payable public highestBidder */\n    tag_8:\n      callvalue\n      dup1\n      iszero\n      tag_42\n      jumpi\n      0x00\n      dup1\n      revert\n    tag_42:\n      pop\n      tag_43\n      tag_44\n      jump\t// in\n    tag_43:\n      mload(0x40)\n      tag_45\n      swap2\n      swap1\n      tag_38\n      jump\t// in\n    tag_45:\n      mload(0x40)\n      dup1\n      swap2\n      sub\n      swap1\n      return\n        /* \"Auction.sol\":359:381  string public ipfsHash */\n    tag_9:\n      callvalue\n      dup1\n      iszero\n      tag_46\n      jumpi\n      0x00\n      dup1\n      revert\n    tag_46:\n      pop\n      tag_47\n      tag_48\n      jump\t// in\n    tag_47:\n      mload(0x40)\n      tag_49\n      swap2\n      swap1\n      tag_50\n      jump\t// in\n    tag_49:\n      mload(0x40)\n      dup1\n      swap2\n      sub\n      swap1\n      return\n        /* \"Auction.sol\":2257:3030  function placeBid() public payable notOwner afterStart beforeEnd{... */\n    tag_10:\n      tag_51\n      tag_52\n      jump\t// in\n    tag_51:\n      stop\n        /* \"Auction.sol\":613:642  uint public highestBindingBid */\n    tag_11:\n      callvalue\n      dup1\n      iszero\n      tag_53\n      jumpi\n      0x00\n      dup1\n      revert\n    tag_53:\n      pop\n      tag_54\n      tag_55\n      jump\t// in\n    tag_54:\n      mload(0x40)\n      tag_56\n      swap2\n      swap1\n      tag_18\n      jump\t// in\n    tag_56:\n      mload(0x40)\n      dup1\n      swap2\n      sub\n      swap1\n      return\n        /* \"Auction.sol\":3470:4770  function finalizeAuction() public{... */\n    tag_12:\n      callvalue\n      dup1\n      iszero\n      tag_57\n      jumpi\n      0x00\n      dup1\n      revert\n    tag_57:\n      pop\n      tag_58\n      tag_59\n      jump\t// in\n    tag_58:\n      stop\n        /* \"Auction.sol\":206:226  uint public endBlock */\n    tag_16:\n      sload(0x02)\n      dup2\n      jump\t// out\n        /* \"Auction.sol\":178:200  uint public startBlock */\n    tag_21:\n      sload(0x01)\n      dup2\n      jump\t// out\n        /* \"Auction.sol\":745:784  mapping(address => uint256) public bids */\n    tag_27:\n      mstore(0x20, 0x07)\n      dup1\n      0x00\n      mstore\n      keccak256(0x00, 0x40)\n      0x00\n      swap2\n      pop\n      swap1\n      pop\n      sload\n      dup2\n      jump\t// out\n        /* \"Auction.sol\":502:527  State public auctionState */\n    tag_31:\n      0x04\n      0x00\n      swap1\n      sload\n      swap1\n      0x0100\n      exp\n      swap1\n      div\n      0xff\n      and\n      dup2\n      jump\t// out\n        /* \"Auction.sol\":79:107  address payable public owner */\n    tag_36:\n      0x00\n      dup1\n      sload\n      swap1\n      0x0100\n      exp\n      swap1\n      div\n      0xffffffffffffffffffffffffffffffffffffffff\n      and\n      dup2\n      jump\t// out\n        /* \"Auction.sol\":3143:3237  function cancelAuction() public view onlyOwner{... */\n    tag_41:\n        /* \"Auction.sol\":1786:1791  owner */\n      0x00\n      dup1\n      sload\n      swap1\n      0x0100\n      exp\n      swap1\n      div\n      0xffffffffffffffffffffffffffffffffffffffff\n      and\n        /* \"Auction.sol\":1772:1791  msg.sender == owner */\n      0xffffffffffffffffffffffffffffffffffffffff\n      and\n        /* \"Auction.sol\":1772:1782  msg.sender */\n      caller\n        /* \"Auction.sol\":1772:1791  msg.sender == owner */\n      0xffffffffffffffffffffffffffffffffffffffff\n      and\n      eq\n        /* \"Auction.sol\":1764:1792  require(msg.sender == owner) */\n      tag_61\n      jumpi\n      0x00\n      dup1\n      revert\n    tag_61:\n        /* \"Auction.sol\":3215:3230  State.Cancelled */\n      0x03\n        /* \"Auction.sol\":3199:3230  auctionState == State.Cancelled */\n      dup1\n      dup2\n      gt\n      iszero\n      tag_63\n      jumpi\n      tag_64\n      tag_65\n      jump\t// in\n    tag_64:\n    tag_63:\n        /* \"Auction.sol\":3199:3211  auctionState */\n      0x04\n      0x00\n      swap1\n      sload\n      swap1\n      0x0100\n      exp\n      swap1\n      div\n      0xff\n      and\n        /* \"Auction.sol\":3199:3230  auctionState == State.Cancelled */\n      0x03\n      dup2\n      gt\n      iszero\n      tag_66\n      jumpi\n      tag_67\n      tag_65\n      jump\t// in\n    tag_67:\n    tag_66:\n      pop\n      pop\n        /* \"Auction.sol\":3143:3237  function cancelAuction() public view onlyOwner{... */\n      jump\t// out\n        /* \"Auction.sol\":648:684  address payable public highestBidder */\n    tag_44:\n      0x06\n      0x00\n      swap1\n      sload\n      swap1\n      0x0100\n      exp\n      swap1\n      div\n      0xffffffffffffffffffffffffffffffffffffffff\n      and\n      dup2\n      jump\t// out\n        /* \"Auction.sol\":359:381  string public ipfsHash */\n    tag_48:\n      0x03\n      dup1\n      sload\n      tag_68\n      swap1\n      tag_69\n      jump\t// in\n    tag_68:\n      dup1\n      0x1f\n      add\n      0x20\n      dup1\n      swap2\n      div\n      mul\n      0x20\n      add\n      mload(0x40)\n      swap1\n      dup2\n      add\n      0x40\n      mstore\n      dup1\n      swap3\n      swap2\n      swap1\n      dup2\n      dup2\n      mstore\n      0x20\n      add\n      dup3\n      dup1\n      sload\n      tag_70\n      swap1\n      tag_69\n      jump\t// in\n    tag_70:\n      dup1\n      iszero\n      tag_71\n      jumpi\n      dup1\n      0x1f\n      lt\n      tag_72\n      jumpi\n      0x0100\n      dup1\n      dup4\n      sload\n      div\n      mul\n      dup4\n      mstore\n      swap2\n      0x20\n      add\n      swap2\n      jump(tag_71)\n    tag_72:\n      dup3\n      add\n      swap2\n      swap1\n      0x00\n      mstore\n      keccak256(0x00, 0x20)\n      swap1\n    tag_73:\n      dup2\n      sload\n      dup2\n      mstore\n      swap1\n      0x01\n      add\n      swap1\n      0x20\n      add\n      dup1\n      dup4\n      gt\n      tag_73\n      jumpi\n      dup3\n      swap1\n      sub\n      0x1f\n      and\n      dup3\n      add\n      swap2\n    tag_71:\n      pop\n      pop\n      pop\n      pop\n      pop\n      dup2\n      jump\t// out\n        /* \"Auction.sol\":2257:3030  function placeBid() public payable notOwner afterStart beforeEnd{... */\n    tag_52:\n        /* \"Auction.sol\":1527:1532  owner */\n      0x00\n      dup1\n      sload\n      swap1\n      0x0100\n      exp\n      swap1\n      div\n      0xffffffffffffffffffffffffffffffffffffffff\n      and\n        /* \"Auction.sol\":1513:1532  msg.sender != owner */\n      0xffffffffffffffffffffffffffffffffffffffff\n      and\n        /* \"Auction.sol\":1513:1523  msg.sender */\n      caller\n        /* \"Auction.sol\":1513:1532  msg.sender != owner */\n      0xffffffffffffffffffffffffffffffffffffffff\n      and\n      sub\n        /* \"Auction.sol\":1505:1533  require(msg.sender != owner) */\n      tag_75\n      jumpi\n      0x00\n      dup1\n      revert\n    tag_75:\n        /* \"Auction.sol\":1612:1622  startBlock */\n      sload(0x01)\n        /* \"Auction.sol\":1596:1608  block.number */\n      number\n        /* \"Auction.sol\":1596:1622  block.number >= startBlock */\n      lt\n      iszero\n        /* \"Auction.sol\":1588:1623  require(block.number >= startBlock) */\n      tag_77\n      jumpi\n      0x00\n      dup1\n      revert\n    tag_77:\n        /* \"Auction.sol\":1701:1709  endBlock */\n      sload(0x02)\n        /* \"Auction.sol\":1685:1697  block.number */\n      number\n        /* \"Auction.sol\":1685:1709  block.number <= endBlock */\n      gt\n      iszero\n        /* \"Auction.sol\":1677:1710  require(block.number <= endBlock) */\n      tag_79\n      jumpi\n      0x00\n      dup1\n      revert\n    tag_79:\n        /* \"Auction.sol\":2355:2368  State.Running */\n      0x01\n        /* \"Auction.sol\":2339:2368  auctionState == State.Running */\n      0x03\n      dup2\n      gt\n      iszero\n      tag_81\n      jumpi\n      tag_82\n      tag_65\n      jump\t// in\n    tag_82:\n    tag_81:\n        /* \"Auction.sol\":2339:2351  auctionState */\n      0x04\n      0x00\n      swap1\n      sload\n      swap1\n      0x0100\n      exp\n      swap1\n      div\n      0xff\n      and\n        /* \"Auction.sol\":2339:2368  auctionState == State.Running */\n      0x03\n      dup2\n      gt\n      iszero\n      tag_83\n      jumpi\n      tag_84\n      tag_65\n      jump\t// in\n    tag_84:\n    tag_83:\n      eq\n        /* \"Auction.sol\":2331:2369  require(auctionState == State.Running) */\n      tag_85\n      jumpi\n      0x00\n      dup1\n      revert\n    tag_85:\n        /* \"Auction.sol\":2441:2444  100 */\n      0x64\n        /* \"Auction.sol\":2428:2437  msg.value */\n      callvalue\n        /* \"Auction.sol\":2428:2444  msg.value >= 100 */\n      lt\n      iszero\n        /* \"Auction.sol\":2420:2445  require(msg.value >= 100) */\n      tag_86\n      jumpi\n      0x00\n      dup1\n      revert\n    tag_86:\n        /* \"Auction.sol\":2513:2528  uint currentBid */\n      0x00\n        /* \"Auction.sol\":2550:2559  msg.value */\n      callvalue\n        /* \"Auction.sol\":2531:2535  bids */\n      0x07\n        /* \"Auction.sol\":2531:2547  bids[msg.sender] */\n      0x00\n        /* \"Auction.sol\":2536:2546  msg.sender */\n      caller\n        /* \"Auction.sol\":2531:2547  bids[msg.sender] */\n      0xffffffffffffffffffffffffffffffffffffffff\n      and\n      0xffffffffffffffffffffffffffffffffffffffff\n      and\n      dup2\n      mstore\n      0x20\n      add\n      swap1\n      dup2\n      mstore\n      0x20\n      add\n      0x00\n      keccak256\n      sload\n        /* \"Auction.sol\":2531:2559  bids[msg.sender] + msg.value */\n      tag_87\n      swap2\n      swap1\n      tag_88\n      jump\t// in\n    tag_87:\n        /* \"Auction.sol\":2513:2559  uint currentBid = bids[msg.sender] + msg.value */\n      swap1\n      pop\n        /* \"Auction.sol\":2590:2607  highestBindingBid */\n      sload(0x05)\n        /* \"Auction.sol\":2577:2587  currentBid */\n      dup2\n        /* \"Auction.sol\":2577:2607  currentBid > highestBindingBid */\n      gt\n        /* \"Auction.sol\":2569:2608  require(currentBid > highestBindingBid) */\n      tag_89\n      jumpi\n      0x00\n      dup1\n      revert\n    tag_89:\n        /* \"Auction.sol\":2723:2733  currentBid */\n      dup1\n        /* \"Auction.sol\":2704:2708  bids */\n      0x07\n        /* \"Auction.sol\":2704:2720  bids[msg.sender] */\n      0x00\n        /* \"Auction.sol\":2709:2719  msg.sender */\n      caller\n        /* \"Auction.sol\":2704:2720  bids[msg.sender] */\n      0xffffffffffffffffffffffffffffffffffffffff\n      and\n      0xffffffffffffffffffffffffffffffffffffffff\n      and\n      dup2\n      mstore\n      0x20\n      add\n      swap1\n      dup2\n      mstore\n      0x20\n      add\n      0x00\n      keccak256\n        /* \"Auction.sol\":2704:2733  bids[msg.sender] = currentBid */\n      dup2\n      swap1\n      sstore\n      pop\n        /* \"Auction.sol\":2761:2765  bids */\n      0x07\n        /* \"Auction.sol\":2761:2780  bids[highestBidder] */\n      0x00\n        /* \"Auction.sol\":2766:2779  highestBidder */\n      0x06\n      0x00\n      swap1\n      sload\n      swap1\n      0x0100\n      exp\n      swap1\n      div\n      0xffffffffffffffffffffffffffffffffffffffff\n      and\n        /* \"Auction.sol\":2761:2780  bids[highestBidder] */\n      0xffffffffffffffffffffffffffffffffffffffff\n      and\n      0xffffffffffffffffffffffffffffffffffffffff\n      and\n      dup2\n      mstore\n      0x20\n      add\n      swap1\n      dup2\n      mstore\n      0x20\n      add\n      0x00\n      keccak256\n      sload\n        /* \"Auction.sol\":2747:2757  currentBid */\n      dup2\n        /* \"Auction.sol\":2747:2780  currentBid <= bids[highestBidder] */\n      gt\n        /* \"Auction.sol\":2744:3024  if(currentBid <= bids[highestBidder]){... */\n      tag_90\n      jumpi\n        /* \"Auction.sol\":2815:2867  min(currentBid + bidIncrement , bids[highestBidder]) */\n      tag_91\n        /* \"Auction.sol\":2832:2844  bidIncrement */\n      sload(0x08)\n        /* \"Auction.sol\":2819:2829  currentBid */\n      dup3\n        /* \"Auction.sol\":2819:2844  currentBid + bidIncrement */\n      tag_92\n      swap2\n      swap1\n      tag_88\n      jump\t// in\n    tag_92:\n        /* \"Auction.sol\":2847:2851  bids */\n      0x07\n        /* \"Auction.sol\":2847:2866  bids[highestBidder] */\n      0x00\n        /* \"Auction.sol\":2852:2865  highestBidder */\n      0x06\n      0x00\n      swap1\n      sload\n      swap1\n      0x0100\n      exp\n      swap1\n      div\n      0xffffffffffffffffffffffffffffffffffffffff\n      and\n        /* \"Auction.sol\":2847:2866  bids[highestBidder] */\n      0xffffffffffffffffffffffffffffffffffffffff\n      and\n      0xffffffffffffffffffffffffffffffffffffffff\n      and\n      dup2\n      mstore\n      0x20\n      add\n      swap1\n      dup2\n      mstore\n      0x20\n      add\n      0x00\n      keccak256\n      sload\n        /* \"Auction.sol\":2815:2818  min */\n      tag_93\n        /* \"Auction.sol\":2815:2867  min(currentBid + bidIncrement , bids[highestBidder]) */\n      jump\t// in\n    tag_91:\n        /* \"Auction.sol\":2795:2812  highestBindingBid */\n      0x05\n        /* \"Auction.sol\":2795:2867  highestBindingBid = min(currentBid + bidIncrement , bids[highestBidder]) */\n      dup2\n      swap1\n      sstore\n      pop\n        /* \"Auction.sol\":2744:3024  if(currentBid <= bids[highestBidder]){... */\n      jump(tag_94)\n    tag_90:\n        /* \"Auction.sol\":2916:2964  min(currentBid,bids[highestBidder]+bidIncrement) */\n      tag_95\n        /* \"Auction.sol\":2920:2930  currentBid */\n      dup2\n        /* \"Auction.sol\":2951:2963  bidIncrement */\n      sload(0x08)\n        /* \"Auction.sol\":2931:2935  bids */\n      0x07\n        /* \"Auction.sol\":2931:2950  bids[highestBidder] */\n      0x00\n        /* \"Auction.sol\":2936:2949  highestBidder */\n      0x06\n      0x00\n      swap1\n      sload\n      swap1\n      0x0100\n      exp\n      swap1\n      div\n      0xffffffffffffffffffffffffffffffffffffffff\n      and\n        /* \"Auction.sol\":2931:2950  bids[highestBidder] */\n      0xffffffffffffffffffffffffffffffffffffffff\n      and\n      0xffffffffffffffffffffffffffffffffffffffff\n      and\n      dup2\n      mstore\n      0x20\n      add\n      swap1\n      dup2\n      mstore\n      0x20\n      add\n      0x00\n      keccak256\n      sload\n        /* \"Auction.sol\":2931:2963  bids[highestBidder]+bidIncrement */\n      tag_96\n      swap2\n      swap1\n      tag_88\n      jump\t// in\n    tag_96:\n        /* \"Auction.sol\":2916:2919  min */\n      tag_93\n        /* \"Auction.sol\":2916:2964  min(currentBid,bids[highestBidder]+bidIncrement) */\n      jump\t// in\n    tag_95:\n        /* \"Auction.sol\":2896:2913  highestBindingBid */\n      0x05\n        /* \"Auction.sol\":2896:2964  highestBindingBid = min(currentBid,bids[highestBidder]+bidIncrement) */\n      dup2\n      swap1\n      sstore\n      pop\n        /* \"Auction.sol\":3002:3012  msg.sender */\n      caller\n        /* \"Auction.sol\":2978:2991  highestBidder */\n      0x06\n      0x00\n        /* \"Auction.sol\":2978:3013  highestBidder = payable(msg.sender) */\n      0x0100\n      exp\n      dup2\n      sload\n      dup2\n      0xffffffffffffffffffffffffffffffffffffffff\n      mul\n      not\n      and\n      swap1\n      dup4\n      0xffffffffffffffffffffffffffffffffffffffff\n      and\n      mul\n      or\n      swap1\n      sstore\n      pop\n        /* \"Auction.sol\":2744:3024  if(currentBid <= bids[highestBidder]){... */\n    tag_94:\n        /* \"Auction.sol\":2321:3030  {... */\n      pop\n        /* \"Auction.sol\":2257:3030  function placeBid() public payable notOwner afterStart beforeEnd{... */\n      jump\t// out\n        /* \"Auction.sol\":613:642  uint public highestBindingBid */\n    tag_55:\n      sload(0x05)\n      dup2\n      jump\t// out\n        /* \"Auction.sol\":3470:4770  function finalizeAuction() public{... */\n    tag_59:\n        /* \"Auction.sol\":3537:3552  State.Cancelled */\n      0x03\n        /* \"Auction.sol\":3521:3552  auctionState == State.Cancelled */\n      dup1\n      dup2\n      gt\n      iszero\n      tag_98\n      jumpi\n      tag_99\n      tag_65\n      jump\t// in\n    tag_99:\n    tag_98:\n        /* \"Auction.sol\":3521:3533  auctionState */\n      0x04\n      0x00\n      swap1\n      sload\n      swap1\n      0x0100\n      exp\n      swap1\n      div\n      0xff\n      and\n        /* \"Auction.sol\":3521:3552  auctionState == State.Cancelled */\n      0x03\n      dup2\n      gt\n      iszero\n      tag_100\n      jumpi\n      tag_101\n      tag_65\n      jump\t// in\n    tag_101:\n    tag_100:\n      eq\n        /* \"Auction.sol\":3521:3579  auctionState == State.Cancelled || block.number > endBlock */\n      dup1\n      tag_102\n      jumpi\n      pop\n        /* \"Auction.sol\":3571:3579  endBlock */\n      sload(0x02)\n        /* \"Auction.sol\":3556:3568  block.number */\n      number\n        /* \"Auction.sol\":3556:3579  block.number > endBlock */\n      gt\n        /* \"Auction.sol\":3521:3579  auctionState == State.Cancelled || block.number > endBlock */\n    tag_102:\n        /* \"Auction.sol\":3513:3580  require(auctionState == State.Cancelled || block.number > endBlock) */\n      tag_103\n      jumpi\n      0x00\n      dup1\n      revert\n    tag_103:\n        /* \"Auction.sol\":3717:3722  owner */\n      0x00\n      dup1\n      sload\n      swap1\n      0x0100\n      exp\n      swap1\n      div\n      0xffffffffffffffffffffffffffffffffffffffff\n      and\n        /* \"Auction.sol\":3703:3722  msg.sender == owner */\n      0xffffffffffffffffffffffffffffffffffffffff\n      and\n        /* \"Auction.sol\":3703:3713  msg.sender */\n      caller\n        /* \"Auction.sol\":3703:3722  msg.sender == owner */\n      0xffffffffffffffffffffffffffffffffffffffff\n      and\n      eq\n        /* \"Auction.sol\":3703:3746  msg.sender == owner || bids[msg.sender] > 0 */\n      dup1\n      tag_104\n      jumpi\n      pop\n        /* \"Auction.sol\":3745:3746  0 */\n      0x00\n        /* \"Auction.sol\":3726:3730  bids */\n      0x07\n        /* \"Auction.sol\":3726:3742  bids[msg.sender] */\n      0x00\n        /* \"Auction.sol\":3731:3741  msg.sender */\n      caller\n        /* \"Auction.sol\":3726:3742  bids[msg.sender] */\n      0xffffffffffffffffffffffffffffffffffffffff\n      and\n      0xffffffffffffffffffffffffffffffffffffffff\n      and\n      dup2\n      mstore\n      0x20\n      add\n      swap1\n      dup2\n      mstore\n      0x20\n      add\n      0x00\n      keccak256\n      sload\n        /* \"Auction.sol\":3726:3746  bids[msg.sender] > 0 */\n      gt\n        /* \"Auction.sol\":3703:3746  msg.sender == owner || bids[msg.sender] > 0 */\n    tag_104:\n        /* \"Auction.sol\":3695:3747  require(msg.sender == owner || bids[msg.sender] > 0) */\n      tag_105\n      jumpi\n      0x00\n      dup1\n      revert\n    tag_105:\n        /* \"Auction.sol\":3829:3854  address payable recepient */\n      0x00\n        /* \"Auction.sol\":3864:3874  uint value */\n      dup1\n        /* \"Auction.sol\":3903:3918  State.Cancelled */\n      0x03\n        /* \"Auction.sol\":3887:3918  auctionState == State.Cancelled */\n      dup1\n      dup2\n      gt\n      iszero\n      tag_106\n      jumpi\n      tag_107\n      tag_65\n      jump\t// in\n    tag_107:\n    tag_106:\n        /* \"Auction.sol\":3887:3899  auctionState */\n      0x04\n      0x00\n      swap1\n      sload\n      swap1\n      0x0100\n      exp\n      swap1\n      div\n      0xff\n      and\n        /* \"Auction.sol\":3887:3918  auctionState == State.Cancelled */\n      0x03\n      dup2\n      gt\n      iszero\n      tag_108\n      jumpi\n      tag_109\n      tag_65\n      jump\t// in\n    tag_109:\n    tag_108:\n      sub\n        /* \"Auction.sol\":3884:4563  if(auctionState == State.Cancelled){... */\n      tag_110\n      jumpi\n        /* \"Auction.sol\":3953:3963  msg.sender */\n      caller\n        /* \"Auction.sol\":3933:3964  recepient = payable(msg.sender) */\n      swap2\n      pop\n        /* \"Auction.sol\":3884:4563  if(auctionState == State.Cancelled){... */\n      jump(tag_111)\n    tag_110:\n        /* \"Auction.sol\":4081:4086  owner */\n      0x00\n      dup1\n      sload\n      swap1\n      0x0100\n      exp\n      swap1\n      div\n      0xffffffffffffffffffffffffffffffffffffffff\n      and\n        /* \"Auction.sol\":4067:4086  msg.sender == owner */\n      0xffffffffffffffffffffffffffffffffffffffff\n      and\n        /* \"Auction.sol\":4067:4077  msg.sender */\n      caller\n        /* \"Auction.sol\":4067:4086  msg.sender == owner */\n      0xffffffffffffffffffffffffffffffffffffffff\n      and\n      sub\n        /* \"Auction.sol\":4064:4543  if(msg.sender == owner){... */\n      tag_112\n      jumpi\n        /* \"Auction.sol\":4117:4122  owner */\n      0x00\n      dup1\n      sload\n      swap1\n      0x0100\n      exp\n      swap1\n      div\n      0xffffffffffffffffffffffffffffffffffffffff\n      and\n        /* \"Auction.sol\":4105:4122  recepient = owner */\n      swap2\n      pop\n        /* \"Auction.sol\":4148:4165  highestBindingBid */\n      sload(0x05)\n        /* \"Auction.sol\":4140:4165  value = highestBindingBid */\n      swap1\n      pop\n        /* \"Auction.sol\":4064:4543  if(msg.sender == owner){... */\n      jump(tag_113)\n    tag_112:\n        /* \"Auction.sol\":4256:4269  highestBidder */\n      0x06\n      0x00\n      swap1\n      sload\n      swap1\n      0x0100\n      exp\n      swap1\n      div\n      0xffffffffffffffffffffffffffffffffffffffff\n      and\n        /* \"Auction.sol\":4242:4269  msg.sender == highestBidder */\n      0xffffffffffffffffffffffffffffffffffffffff\n      and\n        /* \"Auction.sol\":4242:4252  msg.sender */\n      caller\n        /* \"Auction.sol\":4242:4269  msg.sender == highestBidder */\n      0xffffffffffffffffffffffffffffffffffffffff\n      and\n      sub\n        /* \"Auction.sol\":4239:4529  if(msg.sender == highestBidder){... */\n      tag_114\n      jumpi\n        /* \"Auction.sol\":4304:4317  highestBidder */\n      0x06\n      0x00\n      swap1\n      sload\n      swap1\n      0x0100\n      exp\n      swap1\n      div\n      0xffffffffffffffffffffffffffffffffffffffff\n      and\n        /* \"Auction.sol\":4292:4317  recepient = highestBidder */\n      swap2\n      pop\n        /* \"Auction.sol\":4369:4386  highestBindingBid */\n      sload(0x05)\n        /* \"Auction.sol\":4347:4351  bids */\n      0x07\n        /* \"Auction.sol\":4347:4366  bids[highestBidder] */\n      0x00\n        /* \"Auction.sol\":4352:4365  highestBidder */\n      0x06\n      0x00\n      swap1\n      sload\n      swap1\n      0x0100\n      exp\n      swap1\n      div\n      0xffffffffffffffffffffffffffffffffffffffff\n      and\n        /* \"Auction.sol\":4347:4366  bids[highestBidder] */\n      0xffffffffffffffffffffffffffffffffffffffff\n      and\n      0xffffffffffffffffffffffffffffffffffffffff\n      and\n      dup2\n      mstore\n      0x20\n      add\n      swap1\n      dup2\n      mstore\n      0x20\n      add\n      0x00\n      keccak256\n      sload\n        /* \"Auction.sol\":4347:4386  bids[highestBidder] - highestBindingBid */\n      tag_115\n      swap2\n      swap1\n      tag_116\n      jump\t// in\n    tag_115:\n        /* \"Auction.sol\":4339:4386  value = bids[highestBidder] - highestBindingBid */\n      swap1\n      pop\n        /* \"Auction.sol\":4239:4529  if(msg.sender == highestBidder){... */\n      jump(tag_117)\n    tag_114:\n        /* \"Auction.sol\":4453:4463  msg.sender */\n      caller\n        /* \"Auction.sol\":4431:4464  recepient =  payable (msg.sender) */\n      swap2\n      pop\n        /* \"Auction.sol\":4494:4498  bids */\n      0x07\n        /* \"Auction.sol\":4494:4510  bids[msg.sender] */\n      0x00\n        /* \"Auction.sol\":4499:4509  msg.sender */\n      caller\n        /* \"Auction.sol\":4494:4510  bids[msg.sender] */\n      0xffffffffffffffffffffffffffffffffffffffff\n      and\n      0xffffffffffffffffffffffffffffffffffffffff\n      and\n      dup2\n      mstore\n      0x20\n      add\n      swap1\n      dup2\n      mstore\n      0x20\n      add\n      0x00\n      keccak256\n      sload\n        /* \"Auction.sol\":4486:4510  value = bids[msg.sender] */\n      swap1\n      pop\n        /* \"Auction.sol\":4239:4529  if(msg.sender == highestBidder){... */\n    tag_117:\n        /* \"Auction.sol\":4064:4543  if(msg.sender == owner){... */\n    tag_113:\n        /* \"Auction.sol\":3884:4563  if(auctionState == State.Cancelled){... */\n    tag_111:\n        /* \"Auction.sol\":4681:4682  0 */\n      0x00\n        /* \"Auction.sol\":4663:4667  bids */\n      0x07\n        /* \"Auction.sol\":4663:4678  bids[recepient] */\n      0x00\n        /* \"Auction.sol\":4668:4677  recepient */\n      dup5\n        /* \"Auction.sol\":4663:4678  bids[recepient] */\n      0xffffffffffffffffffffffffffffffffffffffff\n      and\n      0xffffffffffffffffffffffffffffffffffffffff\n      and\n      dup2\n      mstore\n      0x20\n      add\n      swap1\n      dup2\n      mstore\n      0x20\n      add\n      0x00\n      keccak256\n        /* \"Auction.sol\":4663:4682  bids[recepient] = 0 */\n      dup2\n      swap1\n      sstore\n      pop\n        /* \"Auction.sol\":4738:4747  recepient */\n      dup2\n        /* \"Auction.sol\":4738:4756  recepient.transfer */\n      0xffffffffffffffffffffffffffffffffffffffff\n      and\n        /* \"Auction.sol\":4738:4763  recepient.transfer(value) */\n      0x08fc\n        /* \"Auction.sol\":4757:4762  value */\n      dup3\n        /* \"Auction.sol\":4738:4763  recepient.transfer(value) */\n      swap1\n      dup2\n      iszero\n      mul\n      swap1\n      mload(0x40)\n      0x00\n      mload(0x40)\n      dup1\n      dup4\n      sub\n      dup2\n      dup6\n      dup9\n      dup9\n      call\n      swap4\n      pop\n      pop\n      pop\n      pop\n      iszero\n      dup1\n      iszero\n      tag_119\n      jumpi\n      returndatasize\n      0x00\n      dup1\n      returndatacopy\n      revert(0x00, returndatasize)\n    tag_119:\n      pop\n        /* \"Auction.sol\":3503:4770  {... */\n      pop\n      pop\n        /* \"Auction.sol\":3470:4770  function finalizeAuction() public{... */\n      jump\t// out\n        /* \"Auction.sol\":1892:2043  function min(uint a , uint b) pure internal returns(uint){... */\n    tag_93:\n        /* \"Auction.sol\":1944:1948  uint */\n      0x00\n        /* \"Auction.sol\":1965:1966  b */\n      dup2\n        /* \"Auction.sol\":1962:1963  a */\n      dup4\n        /* \"Auction.sol\":1962:1966  a<=b */\n      gt\n        /* \"Auction.sol\":1959:2037  if(a<=b){... */\n      tag_121\n      jumpi\n        /* \"Auction.sol\":1988:1989  a */\n      dup3\n        /* \"Auction.sol\":1981:1989  return a */\n      swap1\n      pop\n      jump(tag_120)\n        /* \"Auction.sol\":1959:2037  if(a<=b){... */\n    tag_121:\n        /* \"Auction.sol\":2025:2026  b */\n      dup2\n        /* \"Auction.sol\":2018:2026  return b */\n      swap1\n      pop\n        /* \"Auction.sol\":1892:2043  function min(uint a , uint b) pure internal returns(uint){... */\n    tag_120:\n      swap3\n      swap2\n      pop\n      pop\n      jump\t// out\n        /* \"#utility.yul\":7:84   */\n    tag_123:\n        /* \"#utility.yul\":44:51   */\n      0x00\n        /* \"#utility.yul\":73:78   */\n      dup2\n        /* \"#utility.yul\":62:78   */\n      swap1\n      pop\n        /* \"#utility.yul\":7:84   */\n      swap2\n      swap1\n      pop\n      jump\t// out\n        /* \"#utility.yul\":90:208   */\n    tag_124:\n        /* \"#utility.yul\":177:201   */\n      tag_148\n        /* \"#utility.yul\":195:200   */\n      dup2\n        /* \"#utility.yul\":177:201   */\n      tag_123\n      jump\t// in\n    tag_148:\n        /* \"#utility.yul\":172:175   */\n      dup3\n        /* \"#utility.yul\":165:202   */\n      mstore\n        /* \"#utility.yul\":90:208   */\n      pop\n      pop\n      jump\t// out\n        /* \"#utility.yul\":214:436   */\n    tag_18:\n        /* \"#utility.yul\":307:311   */\n      0x00\n        /* \"#utility.yul\":345:347   */\n      0x20\n        /* \"#utility.yul\":334:343   */\n      dup3\n        /* \"#utility.yul\":330:348   */\n      add\n        /* \"#utility.yul\":322:348   */\n      swap1\n      pop\n        /* \"#utility.yul\":358:429   */\n      tag_150\n        /* \"#utility.yul\":426:427   */\n      0x00\n        /* \"#utility.yul\":415:424   */\n      dup4\n        /* \"#utility.yul\":411:428   */\n      add\n        /* \"#utility.yul\":402:408   */\n      dup5\n        /* \"#utility.yul\":358:429   */\n      tag_124\n      jump\t// in\n    tag_150:\n        /* \"#utility.yul\":214:436   */\n      swap3\n      swap2\n      pop\n      pop\n      jump\t// out\n        /* \"#utility.yul\":523:640   */\n    tag_126:\n        /* \"#utility.yul\":632:633   */\n      0x00\n        /* \"#utility.yul\":629:630   */\n      dup1\n        /* \"#utility.yul\":622:634   */\n      revert\n        /* \"#utility.yul\":769:895   */\n    tag_128:\n        /* \"#utility.yul\":806:813   */\n      0x00\n        /* \"#utility.yul\":846:888   */\n      0xffffffffffffffffffffffffffffffffffffffff\n        /* \"#utility.yul\":839:844   */\n      dup3\n        /* \"#utility.yul\":835:889   */\n      and\n        /* \"#utility.yul\":824:889   */\n      swap1\n      pop\n        /* \"#utility.yul\":769:895   */\n      swap2\n      swap1\n      pop\n      jump\t// out\n        /* \"#utility.yul\":901:997   */\n    tag_129:\n        /* \"#utility.yul\":938:945   */\n      0x00\n        /* \"#utility.yul\":967:991   */\n      tag_156\n        /* \"#utility.yul\":985:990   */\n      dup3\n        /* \"#utility.yul\":967:991   */\n      tag_128\n      jump\t// in\n    tag_156:\n        /* \"#utility.yul\":956:991   */\n      swap1\n      pop\n        /* \"#utility.yul\":901:997   */\n      swap2\n      swap1\n      pop\n      jump\t// out\n        /* \"#utility.yul\":1003:1125   */\n    tag_130:\n        /* \"#utility.yul\":1076:1100   */\n      tag_158\n        /* \"#utility.yul\":1094:1099   */\n      dup2\n        /* \"#utility.yul\":1076:1100   */\n      tag_129\n      jump\t// in\n    tag_158:\n        /* \"#utility.yul\":1069:1074   */\n      dup2\n        /* \"#utility.yul\":1066:1101   */\n      eq\n        /* \"#utility.yul\":1056:1119   */\n      tag_159\n      jumpi\n        /* \"#utility.yul\":1115:1116   */\n      0x00\n        /* \"#utility.yul\":1112:1113   */\n      dup1\n        /* \"#utility.yul\":1105:1117   */\n      revert\n        /* \"#utility.yul\":1056:1119   */\n    tag_159:\n        /* \"#utility.yul\":1003:1125   */\n      pop\n      jump\t// out\n        /* \"#utility.yul\":1131:1270   */\n    tag_131:\n        /* \"#utility.yul\":1177:1182   */\n      0x00\n        /* \"#utility.yul\":1215:1221   */\n      dup2\n        /* \"#utility.yul\":1202:1222   */\n      calldataload\n        /* \"#utility.yul\":1193:1222   */\n      swap1\n      pop\n        /* \"#utility.yul\":1231:1264   */\n      tag_161\n        /* \"#utility.yul\":1258:1263   */\n      dup2\n        /* \"#utility.yul\":1231:1264   */\n      tag_130\n      jump\t// in\n    tag_161:\n        /* \"#utility.yul\":1131:1270   */\n      swap3\n      swap2\n      pop\n      pop\n      jump\t// out\n        /* \"#utility.yul\":1276:1605   */\n    tag_26:\n        /* \"#utility.yul\":1335:1341   */\n      0x00\n        /* \"#utility.yul\":1384:1386   */\n      0x20\n        /* \"#utility.yul\":1372:1381   */\n      dup3\n        /* \"#utility.yul\":1363:1370   */\n      dup5\n        /* \"#utility.yul\":1359:1382   */\n      sub\n        /* \"#utility.yul\":1355:1387   */\n      slt\n        /* \"#utility.yul\":1352:1471   */\n      iszero\n      tag_163\n      jumpi\n        /* \"#utility.yul\":1390:1469   */\n      tag_164\n      tag_126\n      jump\t// in\n    tag_164:\n        /* \"#utility.yul\":1352:1471   */\n    tag_163:\n        /* \"#utility.yul\":1510:1511   */\n      0x00\n        /* \"#utility.yul\":1535:1588   */\n      tag_165\n        /* \"#utility.yul\":1580:1587   */\n      dup5\n        /* \"#utility.yul\":1571:1577   */\n      dup3\n        /* \"#utility.yul\":1560:1569   */\n      dup6\n        /* \"#utility.yul\":1556:1578   */\n      add\n        /* \"#utility.yul\":1535:1588   */\n      tag_131\n      jump\t// in\n    tag_165:\n        /* \"#utility.yul\":1525:1588   */\n      swap2\n      pop\n        /* \"#utility.yul\":1481:1598   */\n      pop\n        /* \"#utility.yul\":1276:1605   */\n      swap3\n      swap2\n      pop\n      pop\n      jump\t// out\n        /* \"#utility.yul\":1611:1791   */\n    tag_65:\n        /* \"#utility.yul\":1659:1736   */\n      0x4e487b7100000000000000000000000000000000000000000000000000000000\n        /* \"#utility.yul\":1656:1657   */\n      0x00\n        /* \"#utility.yul\":1649:1737   */\n      mstore\n        /* \"#utility.yul\":1756:1760   */\n      0x21\n        /* \"#utility.yul\":1753:1754   */\n      0x04\n        /* \"#utility.yul\":1746:1761   */\n      mstore\n        /* \"#utility.yul\":1780:1784   */\n      0x24\n        /* \"#utility.yul\":1777:1778   */\n      0x00\n        /* \"#utility.yul\":1770:1785   */\n      revert\n        /* \"#utility.yul\":1797:1910   */\n    tag_132:\n        /* \"#utility.yul\":1878:1879   */\n      0x04\n        /* \"#utility.yul\":1871:1876   */\n      dup2\n        /* \"#utility.yul\":1868:1880   */\n      lt\n        /* \"#utility.yul\":1858:1904   */\n      tag_168\n      jumpi\n        /* \"#utility.yul\":1884:1902   */\n      tag_169\n      tag_65\n      jump\t// in\n    tag_169:\n        /* \"#utility.yul\":1858:1904   */\n    tag_168:\n        /* \"#utility.yul\":1797:1910   */\n      pop\n      jump\t// out\n        /* \"#utility.yul\":1916:2043   */\n    tag_133:\n        /* \"#utility.yul\":1961:1968   */\n      0x00\n        /* \"#utility.yul\":1990:1995   */\n      dup2\n        /* \"#utility.yul\":1979:1995   */\n      swap1\n      pop\n        /* \"#utility.yul\":1996:2037   */\n      tag_171\n        /* \"#utility.yul\":2031:2036   */\n      dup3\n        /* \"#utility.yul\":1996:2037   */\n      tag_132\n      jump\t// in\n    tag_171:\n        /* \"#utility.yul\":1916:2043   */\n      swap2\n      swap1\n      pop\n      jump\t// out\n        /* \"#utility.yul\":2049:2176   */\n    tag_134:\n        /* \"#utility.yul\":2105:2114   */\n      0x00\n        /* \"#utility.yul\":2138:2170   */\n      tag_173\n        /* \"#utility.yul\":2164:2169   */\n      dup3\n        /* \"#utility.yul\":2138:2170   */\n      tag_133\n      jump\t// in\n    tag_173:\n        /* \"#utility.yul\":2125:2170   */\n      swap1\n      pop\n        /* \"#utility.yul\":2049:2176   */\n      swap2\n      swap1\n      pop\n      jump\t// out\n        /* \"#utility.yul\":2182:2325   */\n    tag_135:\n        /* \"#utility.yul\":2275:2318   */\n      tag_175\n        /* \"#utility.yul\":2312:2317   */\n      dup2\n        /* \"#utility.yul\":2275:2318   */\n      tag_134\n      jump\t// in\n    tag_175:\n        /* \"#utility.yul\":2270:2273   */\n      dup3\n        /* \"#utility.yul\":2263:2319   */\n      mstore\n        /* \"#utility.yul\":2182:2325   */\n      pop\n      pop\n      jump\t// out\n        /* \"#utility.yul\":2331:2565   */\n    tag_33:\n        /* \"#utility.yul\":2430:2434   */\n      0x00\n        /* \"#utility.yul\":2468:2470   */\n      0x20\n        /* \"#utility.yul\":2457:2466   */\n      dup3\n        /* \"#utility.yul\":2453:2471   */\n      add\n        /* \"#utility.yul\":2445:2471   */\n      swap1\n      pop\n        /* \"#utility.yul\":2481:2558   */\n      tag_177\n        /* \"#utility.yul\":2555:2556   */\n      0x00\n        /* \"#utility.yul\":2544:2553   */\n      dup4\n        /* \"#utility.yul\":2540:2557   */\n      add\n        /* \"#utility.yul\":2531:2537   */\n      dup5\n        /* \"#utility.yul\":2481:2558   */\n      tag_135\n      jump\t// in\n    tag_177:\n        /* \"#utility.yul\":2331:2565   */\n      swap3\n      swap2\n      pop\n      pop\n      jump\t// out\n        /* \"#utility.yul\":2571:2675   */\n    tag_136:\n        /* \"#utility.yul\":2616:2623   */\n      0x00\n        /* \"#utility.yul\":2645:2669   */\n      tag_179\n        /* \"#utility.yul\":2663:2668   */\n      dup3\n        /* \"#utility.yul\":2645:2669   */\n      tag_128\n      jump\t// in\n    tag_179:\n        /* \"#utility.yul\":2634:2669   */\n      swap1\n      pop\n        /* \"#utility.yul\":2571:2675   */\n      swap2\n      swap1\n      pop\n      jump\t// out\n        /* \"#utility.yul\":2681:2823   */\n    tag_137:\n        /* \"#utility.yul\":2784:2816   */\n      tag_181\n        /* \"#utility.yul\":2810:2815   */\n      dup2\n        /* \"#utility.yul\":2784:2816   */\n      tag_136\n      jump\t// in\n    tag_181:\n        /* \"#utility.yul\":2779:2782   */\n      dup3\n        /* \"#utility.yul\":2772:2817   */\n      mstore\n        /* \"#utility.yul\":2681:2823   */\n      pop\n      pop\n      jump\t// out\n        /* \"#utility.yul\":2829:3083   */\n    tag_38:\n        /* \"#utility.yul\":2938:2942   */\n      0x00\n        /* \"#utility.yul\":2976:2978   */\n      0x20\n        /* \"#utility.yul\":2965:2974   */\n      dup3\n        /* \"#utility.yul\":2961:2979   */\n      add\n        /* \"#utility.yul\":2953:2979   */\n      swap1\n      pop\n        /* \"#utility.yul\":2989:3076   */\n      tag_183\n        /* \"#utility.yul\":3073:3074   */\n      0x00\n        /* \"#utility.yul\":3062:3071   */\n      dup4\n        /* \"#utility.yul\":3058:3075   */\n      add\n        /* \"#utility.yul\":3049:3055   */\n      dup5\n        /* \"#utility.yul\":2989:3076   */\n      tag_137\n      jump\t// in\n    tag_183:\n        /* \"#utility.yul\":2829:3083   */\n      swap3\n      swap2\n      pop\n      pop\n      jump\t// out\n        /* \"#utility.yul\":3089:3188   */\n    tag_138:\n        /* \"#utility.yul\":3141:3147   */\n      0x00\n        /* \"#utility.yul\":3175:3180   */\n      dup2\n        /* \"#utility.yul\":3169:3181   */\n      mload\n        /* \"#utility.yul\":3159:3181   */\n      swap1\n      pop\n        /* \"#utility.yul\":3089:3188   */\n      swap2\n      swap1\n      pop\n      jump\t// out\n        /* \"#utility.yul\":3194:3363   */\n    tag_139:\n        /* \"#utility.yul\":3278:3289   */\n      0x00\n        /* \"#utility.yul\":3312:3318   */\n      dup3\n        /* \"#utility.yul\":3307:3310   */\n      dup3\n        /* \"#utility.yul\":3300:3319   */\n      mstore\n        /* \"#utility.yul\":3352:3356   */\n      0x20\n        /* \"#utility.yul\":3347:3350   */\n      dup3\n        /* \"#utility.yul\":3343:3357   */\n      add\n        /* \"#utility.yul\":3328:3357   */\n      swap1\n      pop\n        /* \"#utility.yul\":3194:3363   */\n      swap3\n      swap2\n      pop\n      pop\n      jump\t// out\n        /* \"#utility.yul\":3369:3615   */\n    tag_140:\n        /* \"#utility.yul\":3450:3451   */\n      0x00\n        /* \"#utility.yul\":3460:3573   */\n    tag_187:\n        /* \"#utility.yul\":3474:3480   */\n      dup4\n        /* \"#utility.yul\":3471:3472   */\n      dup2\n        /* \"#utility.yul\":3468:3481   */\n      lt\n        /* \"#utility.yul\":3460:3573   */\n      iszero\n      tag_189\n      jumpi\n        /* \"#utility.yul\":3559:3560   */\n      dup1\n        /* \"#utility.yul\":3554:3557   */\n      dup3\n        /* \"#utility.yul\":3550:3561   */\n      add\n        /* \"#utility.yul\":3544:3562   */\n      mload\n        /* \"#utility.yul\":3540:3541   */\n      dup2\n        /* \"#utility.yul\":3535:3538   */\n      dup5\n        /* \"#utility.yul\":3531:3542   */\n      add\n        /* \"#utility.yul\":3524:3563   */\n      mstore\n        /* \"#utility.yul\":3496:3498   */\n      0x20\n        /* \"#utility.yul\":3493:3494   */\n      dup2\n        /* \"#utility.yul\":3489:3499   */\n      add\n        /* \"#utility.yul\":3484:3499   */\n      swap1\n      pop\n        /* \"#utility.yul\":3460:3573   */\n      jump(tag_187)\n    tag_189:\n        /* \"#utility.yul\":3607:3608   */\n      0x00\n        /* \"#utility.yul\":3598:3604   */\n      dup5\n        /* \"#utility.yul\":3593:3596   */\n      dup5\n        /* \"#utility.yul\":3589:3605   */\n      add\n        /* \"#utility.yul\":3582:3609   */\n      mstore\n        /* \"#utility.yul\":3431:3615   */\n      pop\n        /* \"#utility.yul\":3369:3615   */\n      pop\n      pop\n      pop\n      jump\t// out\n        /* \"#utility.yul\":3621:3723   */\n    tag_141:\n        /* \"#utility.yul\":3662:3668   */\n      0x00\n        /* \"#utility.yul\":3713:3715   */\n      0x1f\n        /* \"#utility.yul\":3709:3716   */\n      not\n        /* \"#utility.yul\":3704:3706   */\n      0x1f\n        /* \"#utility.yul\":3697:3702   */\n      dup4\n        /* \"#utility.yul\":3693:3707   */\n      add\n        /* \"#utility.yul\":3689:3717   */\n      and\n        /* \"#utility.yul\":3679:3717   */\n      swap1\n      pop\n        /* \"#utility.yul\":3621:3723   */\n      swap2\n      swap1\n      pop\n      jump\t// out\n        /* \"#utility.yul\":3729:4106   */\n    tag_142:\n        /* \"#utility.yul\":3817:3820   */\n      0x00\n        /* \"#utility.yul\":3845:3884   */\n      tag_192\n        /* \"#utility.yul\":3878:3883   */\n      dup3\n        /* \"#utility.yul\":3845:3884   */\n      tag_138\n      jump\t// in\n    tag_192:\n        /* \"#utility.yul\":3900:3971   */\n      tag_193\n        /* \"#utility.yul\":3964:3970   */\n      dup2\n        /* \"#utility.yul\":3959:3962   */\n      dup6\n        /* \"#utility.yul\":3900:3971   */\n      tag_139\n      jump\t// in\n    tag_193:\n        /* \"#utility.yul\":3893:3971   */\n      swap4\n      pop\n        /* \"#utility.yul\":3980:4045   */\n      tag_194\n        /* \"#utility.yul\":4038:4044   */\n      dup2\n        /* \"#utility.yul\":4033:4036   */\n      dup6\n        /* \"#utility.yul\":4026:4030   */\n      0x20\n        /* \"#utility.yul\":4019:4024   */\n      dup7\n        /* \"#utility.yul\":4015:4031   */\n      add\n        /* \"#utility.yul\":3980:4045   */\n      tag_140\n      jump\t// in\n    tag_194:\n        /* \"#utility.yul\":4070:4099   */\n      tag_195\n        /* \"#utility.yul\":4092:4098   */\n      dup2\n        /* \"#utility.yul\":4070:4099   */\n      tag_141\n      jump\t// in\n    tag_195:\n        /* \"#utility.yul\":4065:4068   */\n      dup5\n        /* \"#utility.yul\":4061:4100   */\n      add\n        /* \"#utility.yul\":4054:4100   */\n      swap2\n      pop\n        /* \"#utility.yul\":3821:4106   */\n      pop\n        /* \"#utility.yul\":3729:4106   */\n      swap3\n      swap2\n      pop\n      pop\n      jump\t// out\n        /* \"#utility.yul\":4112:4425   */\n    tag_50:\n        /* \"#utility.yul\":4225:4229   */\n      0x00\n        /* \"#utility.yul\":4263:4265   */\n      0x20\n        /* \"#utility.yul\":4252:4261   */\n      dup3\n        /* \"#utility.yul\":4248:4266   */\n      add\n        /* \"#utility.yul\":4240:4266   */\n      swap1\n      pop\n        /* \"#utility.yul\":4312:4321   */\n      dup2\n        /* \"#utility.yul\":4306:4310   */\n      dup2\n        /* \"#utility.yul\":4302:4322   */\n      sub\n        /* \"#utility.yul\":4298:4299   */\n      0x00\n        /* \"#utility.yul\":4287:4296   */\n      dup4\n        /* \"#utility.yul\":4283:4300   */\n      add\n        /* \"#utility.yul\":4276:4323   */\n      mstore\n        /* \"#utility.yul\":4340:4418   */\n      tag_197\n        /* \"#utility.yul\":4413:4417   */\n      dup2\n        /* \"#utility.yul\":4404:4410   */\n      dup5\n        /* \"#utility.yul\":4340:4418   */\n      tag_142\n      jump\t// in\n    tag_197:\n        /* \"#utility.yul\":4332:4418   */\n      swap1\n      pop\n        /* \"#utility.yul\":4112:4425   */\n      swap3\n      swap2\n      pop\n      pop\n      jump\t// out\n        /* \"#utility.yul\":4431:4611   */\n    tag_143:\n        /* \"#utility.yul\":4479:4556   */\n      0x4e487b7100000000000000000000000000000000000000000000000000000000\n        /* \"#utility.yul\":4476:4477   */\n      0x00\n        /* \"#utility.yul\":4469:4557   */\n      mstore\n        /* \"#utility.yul\":4576:4580   */\n      0x22\n        /* \"#utility.yul\":4573:4574   */\n      0x04\n        /* \"#utility.yul\":4566:4581   */\n      mstore\n        /* \"#utility.yul\":4600:4604   */\n      0x24\n        /* \"#utility.yul\":4597:4598   */\n      0x00\n        /* \"#utility.yul\":4590:4605   */\n      revert\n        /* \"#utility.yul\":4617:4937   */\n    tag_69:\n        /* \"#utility.yul\":4661:4667   */\n      0x00\n        /* \"#utility.yul\":4698:4699   */\n      0x02\n        /* \"#utility.yul\":4692:4696   */\n      dup3\n        /* \"#utility.yul\":4688:4700   */\n      div\n        /* \"#utility.yul\":4678:4700   */\n      swap1\n      pop\n        /* \"#utility.yul\":4745:4746   */\n      0x01\n        /* \"#utility.yul\":4739:4743   */\n      dup3\n        /* \"#utility.yul\":4735:4747   */\n      and\n        /* \"#utility.yul\":4766:4784   */\n      dup1\n        /* \"#utility.yul\":4756:4837   */\n      tag_200\n      jumpi\n        /* \"#utility.yul\":4822:4826   */\n      0x7f\n        /* \"#utility.yul\":4814:4820   */\n      dup3\n        /* \"#utility.yul\":4810:4827   */\n      and\n        /* \"#utility.yul\":4800:4827   */\n      swap2\n      pop\n        /* \"#utility.yul\":4756:4837   */\n    tag_200:\n        /* \"#utility.yul\":4884:4886   */\n      0x20\n        /* \"#utility.yul\":4876:4882   */\n      dup3\n        /* \"#utility.yul\":4873:4887   */\n      lt\n        /* \"#utility.yul\":4853:4871   */\n      dup2\n        /* \"#utility.yul\":4850:4888   */\n      sub\n        /* \"#utility.yul\":4847:4931   */\n      tag_201\n      jumpi\n        /* \"#utility.yul\":4903:4921   */\n      tag_202\n      tag_143\n      jump\t// in\n    tag_202:\n        /* \"#utility.yul\":4847:4931   */\n    tag_201:\n        /* \"#utility.yul\":4668:4937   */\n      pop\n        /* \"#utility.yul\":4617:4937   */\n      swap2\n      swap1\n      pop\n      jump\t// out\n        /* \"#utility.yul\":4943:5123   */\n    tag_144:\n        /* \"#utility.yul\":4991:5068   */\n      0x4e487b7100000000000000000000000000000000000000000000000000000000\n        /* \"#utility.yul\":4988:4989   */\n      0x00\n        /* \"#utility.yul\":4981:5069   */\n      mstore\n        /* \"#utility.yul\":5088:5092   */\n      0x11\n        /* \"#utility.yul\":5085:5086   */\n      0x04\n        /* \"#utility.yul\":5078:5093   */\n      mstore\n        /* \"#utility.yul\":5112:5116   */\n      0x24\n        /* \"#utility.yul\":5109:5110   */\n      0x00\n        /* \"#utility.yul\":5102:5117   */\n      revert\n        /* \"#utility.yul\":5129:5320   */\n    tag_88:\n        /* \"#utility.yul\":5169:5172   */\n      0x00\n        /* \"#utility.yul\":5188:5208   */\n      tag_205\n        /* \"#utility.yul\":5206:5207   */\n      dup3\n        /* \"#utility.yul\":5188:5208   */\n      tag_123\n      jump\t// in\n    tag_205:\n        /* \"#utility.yul\":5183:5208   */\n      swap2\n      pop\n        /* \"#utility.yul\":5222:5242   */\n      tag_206\n        /* \"#utility.yul\":5240:5241   */\n      dup4\n        /* \"#utility.yul\":5222:5242   */\n      tag_123\n      jump\t// in\n    tag_206:\n        /* \"#utility.yul\":5217:5242   */\n      swap3\n      pop\n        /* \"#utility.yul\":5265:5266   */\n      dup3\n        /* \"#utility.yul\":5262:5263   */\n      dup3\n        /* \"#utility.yul\":5258:5267   */\n      add\n        /* \"#utility.yul\":5251:5267   */\n      swap1\n      pop\n        /* \"#utility.yul\":5286:5289   */\n      dup1\n        /* \"#utility.yul\":5283:5284   */\n      dup3\n        /* \"#utility.yul\":5280:5290   */\n      gt\n        /* \"#utility.yul\":5277:5313   */\n      iszero\n      tag_207\n      jumpi\n        /* \"#utility.yul\":5293:5311   */\n      tag_208\n      tag_144\n      jump\t// in\n    tag_208:\n        /* \"#utility.yul\":5277:5313   */\n    tag_207:\n        /* \"#utility.yul\":5129:5320   */\n      swap3\n      swap2\n      pop\n      pop\n      jump\t// out\n        /* \"#utility.yul\":5326:5520   */\n    tag_116:\n        /* \"#utility.yul\":5366:5370   */\n      0x00\n        /* \"#utility.yul\":5386:5406   */\n      tag_210\n        /* \"#utility.yul\":5404:5405   */\n      dup3\n        /* \"#utility.yul\":5386:5406   */\n      tag_123\n      jump\t// in\n    tag_210:\n        /* \"#utility.yul\":5381:5406   */\n      swap2\n      pop\n        /* \"#utility.yul\":5420:5440   */\n      tag_211\n        /* \"#utility.yul\":5438:5439   */\n      dup4\n        /* \"#utility.yul\":5420:5440   */\n      tag_123\n      jump\t// in\n    tag_211:\n        /* \"#utility.yul\":5415:5440   */\n      swap3\n      pop\n        /* \"#utility.yul\":5464:5465   */\n      dup3\n        /* \"#utility.yul\":5461:5462   */\n      dup3\n        /* \"#utility.yul\":5457:5466   */\n      sub\n        /* \"#utility.yul\":5449:5466   */\n      swap1\n      pop\n        /* \"#utility.yul\":5488:5489   */\n      dup2\n        /* \"#utility.yul\":5482:5486   */\n      dup2\n        /* \"#utility.yul\":5479:5490   */\n      gt\n        /* \"#utility.yul\":5476:5513   */\n      iszero\n      tag_212\n      jumpi\n        /* \"#utility.yul\":5493:5511   */\n      tag_213\n      tag_144\n      jump\t// in\n    tag_213:\n        /* \"#utility.yul\":5476:5513   */\n    tag_212:\n        /* \"#utility.yul\":5326:5520   */\n      swap3\n      swap2\n      pop\n      pop\n      jump\t// out\n\n    auxdata: 0xa26469706673582212202213230dd35a05f3f37524b8c3ac51c2ab6da93dfadbe9d0938839c80546b94b64736f6c63430008130033\n}\n",
				"bytecode": {
					"linkReferences": {},
					"object": "60806040523480156200001157600080fd5b50336000806101000a81548173ffffffffffffffffffffffffffffffffffffffff021916908373ffffffffffffffffffffffffffffffffffffffff1602179055506001600460006101000a81548160ff021916908360038111156200007b576200007a620000ce565b5b021790555043600181905550619d8060015462000099919062000136565b6002819055506040518060200160405280600081525060039081620000bf9190620003e1565b506064600881905550620004c8565b7f4e487b7100000000000000000000000000000000000000000000000000000000600052602160045260246000fd5b6000819050919050565b7f4e487b7100000000000000000000000000000000000000000000000000000000600052601160045260246000fd5b60006200014382620000fd565b91506200015083620000fd565b92508282019050808211156200016b576200016a62000107565b5b92915050565b600081519050919050565b7f4e487b7100000000000000000000000000000000000000000000000000000000600052604160045260246000fd5b7f4e487b7100000000000000000000000000000000000000000000000000000000600052602260045260246000fd5b60006002820490506001821680620001f357607f821691505b602082108103620002095762000208620001ab565b5b50919050565b60008190508160005260206000209050919050565b60006020601f8301049050919050565b600082821b905092915050565b600060088302620002737fffffffffffffffffffffffffffffffffffffffffffffffffffffffffffffffff8262000234565b6200027f868362000234565b95508019841693508086168417925050509392505050565b6000819050919050565b6000620002c2620002bc620002b684620000fd565b62000297565b620000fd565b9050919050565b6000819050919050565b620002de83620002a1565b620002f6620002ed82620002c9565b84845462000241565b825550505050565b600090565b6200030d620002fe565b6200031a818484620002d3565b505050565b5b8181101562000342576200033660008262000303565b60018101905062000320565b5050565b601f82111562000391576200035b816200020f565b620003668462000224565b8101602085101562000376578190505b6200038e620003858562000224565b8301826200031f565b50505b505050565b600082821c905092915050565b6000620003b66000198460080262000396565b1980831691505092915050565b6000620003d18383620003a3565b9150826002028217905092915050565b620003ec8262000171565b67ffffffffffffffff8111156200040857620004076200017c565b5b620004148254620001da565b6200042182828562000346565b600060209050601f83116001811462000459576000841562000444578287015190505b620004508582620003c3565b865550620004c0565b601f19841662000469866200020f565b60005b8281101562000493578489015182556001820191506020850194506020810190506200046c565b86831015620004b35784890151620004af601f891682620003a3565b8355505b6001600288020188555050505b505050505050565b610e0280620004d86000396000f3fe60806040526004361061009c5760003560e01c80638fa8b790116100645780638fa8b7901461018a57806391f90157146101a1578063c623674f146101cc578063ecfc7ecc146101f7578063f5b56c5614610201578063f77282ab1461022c5761009c565b8063083c6323146100a157806348cd4cb1146100cc57806362ea82db146100f75780637fb45099146101345780638da5cb5b1461015f575b600080fd5b3480156100ad57600080fd5b506100b6610243565b6040516100c39190610aaa565b60405180910390f35b3480156100d857600080fd5b506100e1610249565b6040516100ee9190610aaa565b60405180910390f35b34801561010357600080fd5b5061011e60048036038101906101199190610b28565b61024f565b60405161012b9190610aaa565b60405180910390f35b34801561014057600080fd5b50610149610267565b6040516101569190610bcc565b60405180910390f35b34801561016b57600080fd5b5061017461027a565b6040516101819190610c08565b60405180910390f35b34801561019657600080fd5b5061019f61029e565b005b3480156101ad57600080fd5b506101b661032f565b6040516101c39190610c08565b60405180910390f35b3480156101d857600080fd5b506101e1610355565b6040516101ee9190610cb3565b60405180910390f35b6101ff6103e3565b005b34801561020d57600080fd5b506102166106f6565b6040516102239190610aaa565b60405180910390f35b34801561023857600080fd5b506102416106fc565b005b60025481565b60015481565b60076020528060005260406000206000915090505481565b600460009054906101000a900460ff1681565b60008054906101000a900473ffffffffffffffffffffffffffffffffffffffff1681565b60008054906101000a900473ffffffffffffffffffffffffffffffffffffffff1673ffffffffffffffffffffffffffffffffffffffff163373ffffffffffffffffffffffffffffffffffffffff16146102f657600080fd5b60038081111561030957610308610b55565b5b600460009054906101000a900460ff16600381111561032b5761032a610b55565b5b5050565b600660009054906101000a900473ffffffffffffffffffffffffffffffffffffffff1681565b6003805461036290610d04565b80601f016020809104026020016040519081016040528092919081815260200182805461038e90610d04565b80156103db5780601f106103b0576101008083540402835291602001916103db565b820191906000526020600020905b8154815290600101906020018083116103be57829003601f168201915b505050505081565b60008054906101000a900473ffffffffffffffffffffffffffffffffffffffff1673ffffffffffffffffffffffffffffffffffffffff163373ffffffffffffffffffffffffffffffffffffffff160361043b57600080fd5b60015443101561044a57600080fd5b60025443111561045957600080fd5b6001600381111561046d5761046c610b55565b5b600460009054906101000a900460ff16600381111561048f5761048e610b55565b5b1461049957600080fd5b60643410156104a757600080fd5b600034600760003373ffffffffffffffffffffffffffffffffffffffff1673ffffffffffffffffffffffffffffffffffffffff168152602001908152602001600020546104f49190610d64565b9050600554811161050457600080fd5b80600760003373ffffffffffffffffffffffffffffffffffffffff1673ffffffffffffffffffffffffffffffffffffffff1681526020019081526020016000208190555060076000600660009054906101000a900473ffffffffffffffffffffffffffffffffffffffff1673ffffffffffffffffffffffffffffffffffffffff1673ffffffffffffffffffffffffffffffffffffffff16815260200190815260200160002054811161063357610628600854826105c19190610d64565b60076000600660009054906101000a900473ffffffffffffffffffffffffffffffffffffffff1673ffffffffffffffffffffffffffffffffffffffff1673ffffffffffffffffffffffffffffffffffffffff16815260200190815260200160002054610a76565b6005819055506106f3565b6106ab8160085460076000600660009054906101000a900473ffffffffffffffffffffffffffffffffffffffff1673ffffffffffffffffffffffffffffffffffffffff1673ffffffffffffffffffffffffffffffffffffffff168152602001908152602001600020546106a69190610d64565b610a76565b60058190555033600660006101000a81548173ffffffffffffffffffffffffffffffffffffffff021916908373ffffffffffffffffffffffffffffffffffffffff1602179055505b50565b60055481565b60038081111561070f5761070e610b55565b5b600460009054906101000a900460ff16600381111561073157610730610b55565b5b148061073e575060025443115b61074757600080fd5b60008054906101000a900473ffffffffffffffffffffffffffffffffffffffff1673ffffffffffffffffffffffffffffffffffffffff163373ffffffffffffffffffffffffffffffffffffffff1614806107e057506000600760003373ffffffffffffffffffffffffffffffffffffffff1673ffffffffffffffffffffffffffffffffffffffff16815260200190815260200160002054115b6107e957600080fd5b6000806003808111156107ff576107fe610b55565b5b600460009054906101000a900460ff16600381111561082157610820610b55565b5b0361082e573391506109e6565b60008054906101000a900473ffffffffffffffffffffffffffffffffffffffff1673ffffffffffffffffffffffffffffffffffffffff163373ffffffffffffffffffffffffffffffffffffffff16036108ae5760008054906101000a900473ffffffffffffffffffffffffffffffffffffffff16915060055490506109e5565b600660009054906101000a900473ffffffffffffffffffffffffffffffffffffffff1673ffffffffffffffffffffffffffffffffffffffff163373ffffffffffffffffffffffffffffffffffffffff160361099e57600660009054906101000a900473ffffffffffffffffffffffffffffffffffffffff16915060055460076000600660009054906101000a900473ffffffffffffffffffffffffffffffffffffffff1673ffffffffffffffffffffffffffffffffffffffff1673ffffffffffffffffffffffffffffffffffffffff168152602001908152602001600020546109979190610d98565b90506109e4565b339150600760003373ffffffffffffffffffffffffffffffffffffffff1673ffffffffffffffffffffffffffffffffffffffff1681526020019081526020016000205490505b5b5b6000600760008473ffffffffffffffffffffffffffffffffffffffff1673ffffffffffffffffffffffffffffffffffffffff168152602001908152602001600020819055508173ffffffffffffffffffffffffffffffffffffffff166108fc829081150290604051600060405180830381858888f19350505050158015610a71573d6000803e3d6000fd5b505050565b6000818311610a8757829050610a8b565b8190505b92915050565b6000819050919050565b610aa481610a91565b82525050565b6000602082019050610abf6000830184610a9b565b92915050565b600080fd5b600073ffffffffffffffffffffffffffffffffffffffff82169050919050565b6000610af582610aca565b9050919050565b610b0581610aea565b8114610b1057600080fd5b50565b600081359050610b2281610afc565b92915050565b600060208284031215610b3e57610b3d610ac5565b5b6000610b4c84828501610b13565b91505092915050565b7f4e487b7100000000000000000000000000000000000000000000000000000000600052602160045260246000fd5b60048110610b9557610b94610b55565b5b50565b6000819050610ba682610b84565b919050565b6000610bb682610b98565b9050919050565b610bc681610bab565b82525050565b6000602082019050610be16000830184610bbd565b92915050565b6000610bf282610aca565b9050919050565b610c0281610be7565b82525050565b6000602082019050610c1d6000830184610bf9565b92915050565b600081519050919050565b600082825260208201905092915050565b60005b83811015610c5d578082015181840152602081019050610c42565b60008484015250505050565b6000601f19601f8301169050919050565b6000610c8582610c23565b610c8f8185610c2e565b9350610c9f818560208601610c3f565b610ca881610c69565b840191505092915050565b60006020820190508181036000830152610ccd8184610c7a565b905092915050565b7f4e487b7100000000000000000000000000000000000000000000000000000000600052602260045260246000fd5b60006002820490506001821680610d1c57607f821691505b602082108103610d2f57610d2e610cd5565b5b50919050565b7f4e487b7100000000000000000000000000000000000000000000000000000000600052601160045260246000fd5b6000610d6f82610a91565b9150610d7a83610a91565b9250828201905080821115610d9257610d91610d35565b5b92915050565b6000610da382610a91565b9150610dae83610a91565b9250828203905081811115610dc657610dc5610d35565b5b9291505056fea26469706673582212202213230dd35a05f3f37524b8c3ac51c2ab6da93dfadbe9d0938839c80546b94b64736f6c63430008130033",
					"opcodes": "PUSH1 0x80 PUSH1 0x40 MSTORE CALLVALUE DUP1 ISZERO PUSH3 0x11 JUMPI PUSH1 0x0 DUP1 REVERT JUMPDEST POP CALLER PUSH1 0x0 DUP1 PUSH2 0x100 EXP DUP2 SLOAD DUP2 PUSH20 0xFFFFFFFFFFFFFFFFFFFFFFFFFFFFFFFFFFFFFFFF MUL NOT AND SWAP1 DUP4 PUSH20 0xFFFFFFFFFFFFFFFFFFFFFFFFFFFFFFFFFFFFFFFF AND MUL OR SWAP1 SSTORE POP PUSH1 0x1 PUSH1 0x4 PUSH1 0x0 PUSH2 0x100 EXP DUP2 SLOAD DUP2 PUSH1 0xFF MUL NOT AND SWAP1 DUP4 PUSH1 0x3 DUP2 GT ISZERO PUSH3 0x7B JUMPI PUSH3 0x7A PUSH3 0xCE JUMP JUMPDEST JUMPDEST MUL OR SWAP1 SSTORE POP NUMBER PUSH1 0x1 DUP2 SWAP1 SSTORE POP PUSH2 0x9D80 PUSH1 0x1 SLOAD PUSH3 0x99 SWAP2 SWAP1 PUSH3 0x136 JUMP JUMPDEST PUSH1 0x2 DUP2 SWAP1 SSTORE POP PUSH1 0x40 MLOAD DUP1 PUSH1 0x20 ADD PUSH1 0x40 MSTORE DUP1 PUSH1 0x0 DUP2 MSTORE POP PUSH1 0x3 SWAP1 DUP2 PUSH3 0xBF SWAP2 SWAP1 PUSH3 0x3E1 JUMP JUMPDEST POP PUSH1 0x64 PUSH1 0x8 DUP2 SWAP1 SSTORE POP PUSH3 0x4C8 JUMP JUMPDEST PUSH32 0x4E487B7100000000000000000000000000000000000000000000000000000000 PUSH1 0x0 MSTORE PUSH1 0x21 PUSH1 0x4 MSTORE PUSH1 0x24 PUSH1 0x0 REVERT JUMPDEST PUSH1 0x0 DUP2 SWAP1 POP SWAP2 SWAP1 POP JUMP JUMPDEST PUSH32 0x4E487B7100000000000000000000000000000000000000000000000000000000 PUSH1 0x0 MSTORE PUSH1 0x11 PUSH1 0x4 MSTORE PUSH1 0x24 PUSH1 0x0 REVERT JUMPDEST PUSH1 0x0 PUSH3 0x143 DUP3 PUSH3 0xFD JUMP JUMPDEST SWAP2 POP PUSH3 0x150 DUP4 PUSH3 0xFD JUMP JUMPDEST SWAP3 POP DUP3 DUP3 ADD SWAP1 POP DUP1 DUP3 GT ISZERO PUSH3 0x16B JUMPI PUSH3 0x16A PUSH3 0x107 JUMP JUMPDEST JUMPDEST SWAP3 SWAP2 POP POP JUMP JUMPDEST PUSH1 0x0 DUP2 MLOAD SWAP1 POP SWAP2 SWAP1 POP JUMP JUMPDEST PUSH32 0x4E487B7100000000000000000000000000000000000000000000000000000000 PUSH1 0x0 MSTORE PUSH1 0x41 PUSH1 0x4 MSTORE PUSH1 0x24 PUSH1 0x0 REVERT JUMPDEST PUSH32 0x4E487B7100000000000000000000000000000000000000000000000000000000 PUSH1 0x0 MSTORE PUSH1 0x22 PUSH1 0x4 MSTORE PUSH1 0x24 PUSH1 0x0 REVERT JUMPDEST PUSH1 0x0 PUSH1 0x2 DUP3 DIV SWAP1 POP PUSH1 0x1 DUP3 AND DUP1 PUSH3 0x1F3 JUMPI PUSH1 0x7F DUP3 AND SWAP2 POP JUMPDEST PUSH1 0x20 DUP3 LT DUP2 SUB PUSH3 0x209 JUMPI PUSH3 0x208 PUSH3 0x1AB JUMP JUMPDEST JUMPDEST POP SWAP2 SWAP1 POP JUMP JUMPDEST PUSH1 0x0 DUP2 SWAP1 POP DUP2 PUSH1 0x0 MSTORE PUSH1 0x20 PUSH1 0x0 KECCAK256 SWAP1 POP SWAP2 SWAP1 POP JUMP JUMPDEST PUSH1 0x0 PUSH1 0x20 PUSH1 0x1F DUP4 ADD DIV SWAP1 POP SWAP2 SWAP1 POP JUMP JUMPDEST PUSH1 0x0 DUP3 DUP3 SHL SWAP1 POP SWAP3 SWAP2 POP POP JUMP JUMPDEST PUSH1 0x0 PUSH1 0x8 DUP4 MUL PUSH3 0x273 PUSH32 0xFFFFFFFFFFFFFFFFFFFFFFFFFFFFFFFFFFFFFFFFFFFFFFFFFFFFFFFFFFFFFFFF DUP3 PUSH3 0x234 JUMP JUMPDEST PUSH3 0x27F DUP7 DUP4 PUSH3 0x234 JUMP JUMPDEST SWAP6 POP DUP1 NOT DUP5 AND SWAP4 POP DUP1 DUP7 AND DUP5 OR SWAP3 POP POP POP SWAP4 SWAP3 POP POP POP JUMP JUMPDEST PUSH1 0x0 DUP2 SWAP1 POP SWAP2 SWAP1 POP JUMP JUMPDEST PUSH1 0x0 PUSH3 0x2C2 PUSH3 0x2BC PUSH3 0x2B6 DUP5 PUSH3 0xFD JUMP JUMPDEST PUSH3 0x297 JUMP JUMPDEST PUSH3 0xFD JUMP JUMPDEST SWAP1 POP SWAP2 SWAP1 POP JUMP JUMPDEST PUSH1 0x0 DUP2 SWAP1 POP SWAP2 SWAP1 POP JUMP JUMPDEST PUSH3 0x2DE DUP4 PUSH3 0x2A1 JUMP JUMPDEST PUSH3 0x2F6 PUSH3 0x2ED DUP3 PUSH3 0x2C9 JUMP JUMPDEST DUP5 DUP5 SLOAD PUSH3 0x241 JUMP JUMPDEST DUP3 SSTORE POP POP POP POP JUMP JUMPDEST PUSH1 0x0 SWAP1 JUMP JUMPDEST PUSH3 0x30D PUSH3 0x2FE JUMP JUMPDEST PUSH3 0x31A DUP2 DUP5 DUP5 PUSH3 0x2D3 JUMP JUMPDEST POP POP POP JUMP JUMPDEST JUMPDEST DUP2 DUP2 LT ISZERO PUSH3 0x342 JUMPI PUSH3 0x336 PUSH1 0x0 DUP3 PUSH3 0x303 JUMP JUMPDEST PUSH1 0x1 DUP2 ADD SWAP1 POP PUSH3 0x320 JUMP JUMPDEST POP POP JUMP JUMPDEST PUSH1 0x1F DUP3 GT ISZERO PUSH3 0x391 JUMPI PUSH3 0x35B DUP2 PUSH3 0x20F JUMP JUMPDEST PUSH3 0x366 DUP5 PUSH3 0x224 JUMP JUMPDEST DUP2 ADD PUSH1 0x20 DUP6 LT ISZERO PUSH3 0x376 JUMPI DUP2 SWAP1 POP JUMPDEST PUSH3 0x38E PUSH3 0x385 DUP6 PUSH3 0x224 JUMP JUMPDEST DUP4 ADD DUP3 PUSH3 0x31F JUMP JUMPDEST POP POP JUMPDEST POP POP POP JUMP JUMPDEST PUSH1 0x0 DUP3 DUP3 SHR SWAP1 POP SWAP3 SWAP2 POP POP JUMP JUMPDEST PUSH1 0x0 PUSH3 0x3B6 PUSH1 0x0 NOT DUP5 PUSH1 0x8 MUL PUSH3 0x396 JUMP JUMPDEST NOT DUP1 DUP4 AND SWAP2 POP POP SWAP3 SWAP2 POP POP JUMP JUMPDEST PUSH1 0x0 PUSH3 0x3D1 DUP4 DUP4 PUSH3 0x3A3 JUMP JUMPDEST SWAP2 POP DUP3 PUSH1 0x2 MUL DUP3 OR SWAP1 POP SWAP3 SWAP2 POP POP JUMP JUMPDEST PUSH3 0x3EC DUP3 PUSH3 0x171 JUMP JUMPDEST PUSH8 0xFFFFFFFFFFFFFFFF DUP2 GT ISZERO PUSH3 0x408 JUMPI PUSH3 0x407 PUSH3 0x17C JUMP JUMPDEST JUMPDEST PUSH3 0x414 DUP3 SLOAD PUSH3 0x1DA JUMP JUMPDEST PUSH3 0x421 DUP3 DUP3 DUP6 PUSH3 0x346 JUMP JUMPDEST PUSH1 0x0 PUSH1 0x20 SWAP1 POP PUSH1 0x1F DUP4 GT PUSH1 0x1 DUP2 EQ PUSH3 0x459 JUMPI PUSH1 0x0 DUP5 ISZERO PUSH3 0x444 JUMPI DUP3 DUP8 ADD MLOAD SWAP1 POP JUMPDEST PUSH3 0x450 DUP6 DUP3 PUSH3 0x3C3 JUMP JUMPDEST DUP7 SSTORE POP PUSH3 0x4C0 JUMP JUMPDEST PUSH1 0x1F NOT DUP5 AND PUSH3 0x469 DUP7 PUSH3 0x20F JUMP JUMPDEST PUSH1 0x0 JUMPDEST DUP3 DUP2 LT ISZERO PUSH3 0x493 JUMPI DUP5 DUP10 ADD MLOAD DUP3 SSTORE PUSH1 0x1 DUP3 ADD SWAP2 POP PUSH1 0x20 DUP6 ADD SWAP5 POP PUSH1 0x20 DUP2 ADD SWAP1 POP PUSH3 0x46C JUMP JUMPDEST DUP7 DUP4 LT ISZERO PUSH3 0x4B3 JUMPI DUP5 DUP10 ADD MLOAD PUSH3 0x4AF PUSH1 0x1F DUP10 AND DUP3 PUSH3 0x3A3 JUMP JUMPDEST DUP4 SSTORE POP JUMPDEST PUSH1 0x1 PUSH1 0x2 DUP9 MUL ADD DUP9 SSTORE POP POP POP JUMPDEST POP POP POP POP POP POP JUMP JUMPDEST PUSH2 0xE02 DUP1 PUSH3 0x4D8 PUSH1 0x0 CODECOPY PUSH1 0x0 RETURN INVALID PUSH1 0x80 PUSH1 0x40 MSTORE PUSH1 0x4 CALLDATASIZE LT PUSH2 0x9C JUMPI PUSH1 0x0 CALLDATALOAD PUSH1 0xE0 SHR DUP1 PUSH4 0x8FA8B790 GT PUSH2 0x64 JUMPI DUP1 PUSH4 0x8FA8B790 EQ PUSH2 0x18A JUMPI DUP1 PUSH4 0x91F90157 EQ PUSH2 0x1A1 JUMPI DUP1 PUSH4 0xC623674F EQ PUSH2 0x1CC JUMPI DUP1 PUSH4 0xECFC7ECC EQ PUSH2 0x1F7 JUMPI DUP1 PUSH4 0xF5B56C56 EQ PUSH2 0x201 JUMPI DUP1 PUSH4 0xF77282AB EQ PUSH2 0x22C JUMPI PUSH2 0x9C JUMP JUMPDEST DUP1 PUSH4 0x83C6323 EQ PUSH2 0xA1 JUMPI DUP1 PUSH4 0x48CD4CB1 EQ PUSH2 0xCC JUMPI DUP1 PUSH4 0x62EA82DB EQ PUSH2 0xF7 JUMPI DUP1 PUSH4 0x7FB45099 EQ PUSH2 0x134 JUMPI DUP1 PUSH4 0x8DA5CB5B EQ PUSH2 0x15F JUMPI JUMPDEST PUSH1 0x0 DUP1 REVERT JUMPDEST CALLVALUE DUP1 ISZERO PUSH2 0xAD JUMPI PUSH1 0x0 DUP1 REVERT JUMPDEST POP PUSH2 0xB6 PUSH2 0x243 JUMP JUMPDEST PUSH1 0x40 MLOAD PUSH2 0xC3 SWAP2 SWAP1 PUSH2 0xAAA JUMP JUMPDEST PUSH1 0x40 MLOAD DUP1 SWAP2 SUB SWAP1 RETURN JUMPDEST CALLVALUE DUP1 ISZERO PUSH2 0xD8 JUMPI PUSH1 0x0 DUP1 REVERT JUMPDEST POP PUSH2 0xE1 PUSH2 0x249 JUMP JUMPDEST PUSH1 0x40 MLOAD PUSH2 0xEE SWAP2 SWAP1 PUSH2 0xAAA JUMP JUMPDEST PUSH1 0x40 MLOAD DUP1 SWAP2 SUB SWAP1 RETURN JUMPDEST CALLVALUE DUP1 ISZERO PUSH2 0x103 JUMPI PUSH1 0x0 DUP1 REVERT JUMPDEST POP PUSH2 0x11E PUSH1 0x4 DUP1 CALLDATASIZE SUB DUP2 ADD SWAP1 PUSH2 0x119 SWAP2 SWAP1 PUSH2 0xB28 JUMP JUMPDEST PUSH2 0x24F JUMP JUMPDEST PUSH1 0x40 MLOAD PUSH2 0x12B SWAP2 SWAP1 PUSH2 0xAAA JUMP JUMPDEST PUSH1 0x40 MLOAD DUP1 SWAP2 SUB SWAP1 RETURN JUMPDEST CALLVALUE DUP1 ISZERO PUSH2 0x140 JUMPI PUSH1 0x0 DUP1 REVERT JUMPDEST POP PUSH2 0x149 PUSH2 0x267 JUMP JUMPDEST PUSH1 0x40 MLOAD PUSH2 0x156 SWAP2 SWAP1 PUSH2 0xBCC JUMP JUMPDEST PUSH1 0x40 MLOAD DUP1 SWAP2 SUB SWAP1 RETURN JUMPDEST CALLVALUE DUP1 ISZERO PUSH2 0x16B JUMPI PUSH1 0x0 DUP1 REVERT JUMPDEST POP PUSH2 0x174 PUSH2 0x27A JUMP JUMPDEST PUSH1 0x40 MLOAD PUSH2 0x181 SWAP2 SWAP1 PUSH2 0xC08 JUMP JUMPDEST PUSH1 0x40 MLOAD DUP1 SWAP2 SUB SWAP1 RETURN JUMPDEST CALLVALUE DUP1 ISZERO PUSH2 0x196 JUMPI PUSH1 0x0 DUP1 REVERT JUMPDEST POP PUSH2 0x19F PUSH2 0x29E JUMP JUMPDEST STOP JUMPDEST CALLVALUE DUP1 ISZERO PUSH2 0x1AD JUMPI PUSH1 0x0 DUP1 REVERT JUMPDEST POP PUSH2 0x1B6 PUSH2 0x32F JUMP JUMPDEST PUSH1 0x40 MLOAD PUSH2 0x1C3 SWAP2 SWAP1 PUSH2 0xC08 JUMP JUMPDEST PUSH1 0x40 MLOAD DUP1 SWAP2 SUB SWAP1 RETURN JUMPDEST CALLVALUE DUP1 ISZERO PUSH2 0x1D8 JUMPI PUSH1 0x0 DUP1 REVERT JUMPDEST POP PUSH2 0x1E1 PUSH2 0x355 JUMP JUMPDEST PUSH1 0x40 MLOAD PUSH2 0x1EE SWAP2 SWAP1 PUSH2 0xCB3 JUMP JUMPDEST PUSH1 0x40 MLOAD DUP1 SWAP2 SUB SWAP1 RETURN JUMPDEST PUSH2 0x1FF PUSH2 0x3E3 JUMP JUMPDEST STOP JUMPDEST CALLVALUE DUP1 ISZERO PUSH2 0x20D JUMPI PUSH1 0x0 DUP1 REVERT JUMPDEST POP PUSH2 0x216 PUSH2 0x6F6 JUMP JUMPDEST PUSH1 0x40 MLOAD PUSH2 0x223 SWAP2 SWAP1 PUSH2 0xAAA JUMP JUMPDEST PUSH1 0x40 MLOAD DUP1 SWAP2 SUB SWAP1 RETURN JUMPDEST CALLVALUE DUP1 ISZERO PUSH2 0x238 JUMPI PUSH1 0x0 DUP1 REVERT JUMPDEST POP PUSH2 0x241 PUSH2 0x6FC JUMP JUMPDEST STOP JUMPDEST PUSH1 0x2 SLOAD DUP2 JUMP JUMPDEST PUSH1 0x1 SLOAD DUP2 JUMP JUMPDEST PUSH1 0x7 PUSH1 0x20 MSTORE DUP1 PUSH1 0x0 MSTORE PUSH1 0x40 PUSH1 0x0 KECCAK256 PUSH1 0x0 SWAP2 POP SWAP1 POP SLOAD DUP2 JUMP JUMPDEST PUSH1 0x4 PUSH1 0x0 SWAP1 SLOAD SWAP1 PUSH2 0x100 EXP SWAP1 DIV PUSH1 0xFF AND DUP2 JUMP JUMPDEST PUSH1 0x0 DUP1 SLOAD SWAP1 PUSH2 0x100 EXP SWAP1 DIV PUSH20 0xFFFFFFFFFFFFFFFFFFFFFFFFFFFFFFFFFFFFFFFF AND DUP2 JUMP JUMPDEST PUSH1 0x0 DUP1 SLOAD SWAP1 PUSH2 0x100 EXP SWAP1 DIV PUSH20 0xFFFFFFFFFFFFFFFFFFFFFFFFFFFFFFFFFFFFFFFF AND PUSH20 0xFFFFFFFFFFFFFFFFFFFFFFFFFFFFFFFFFFFFFFFF AND CALLER PUSH20 0xFFFFFFFFFFFFFFFFFFFFFFFFFFFFFFFFFFFFFFFF AND EQ PUSH2 0x2F6 JUMPI PUSH1 0x0 DUP1 REVERT JUMPDEST PUSH1 0x3 DUP1 DUP2 GT ISZERO PUSH2 0x309 JUMPI PUSH2 0x308 PUSH2 0xB55 JUMP JUMPDEST JUMPDEST PUSH1 0x4 PUSH1 0x0 SWAP1 SLOAD SWAP1 PUSH2 0x100 EXP SWAP1 DIV PUSH1 0xFF AND PUSH1 0x3 DUP2 GT ISZERO PUSH2 0x32B JUMPI PUSH2 0x32A PUSH2 0xB55 JUMP JUMPDEST JUMPDEST POP POP JUMP JUMPDEST PUSH1 0x6 PUSH1 0x0 SWAP1 SLOAD SWAP1 PUSH2 0x100 EXP SWAP1 DIV PUSH20 0xFFFFFFFFFFFFFFFFFFFFFFFFFFFFFFFFFFFFFFFF AND DUP2 JUMP JUMPDEST PUSH1 0x3 DUP1 SLOAD PUSH2 0x362 SWAP1 PUSH2 0xD04 JUMP JUMPDEST DUP1 PUSH1 0x1F ADD PUSH1 0x20 DUP1 SWAP2 DIV MUL PUSH1 0x20 ADD PUSH1 0x40 MLOAD SWAP1 DUP2 ADD PUSH1 0x40 MSTORE DUP1 SWAP3 SWAP2 SWAP1 DUP2 DUP2 MSTORE PUSH1 0x20 ADD DUP3 DUP1 SLOAD PUSH2 0x38E SWAP1 PUSH2 0xD04 JUMP JUMPDEST DUP1 ISZERO PUSH2 0x3DB JUMPI DUP1 PUSH1 0x1F LT PUSH2 0x3B0 JUMPI PUSH2 0x100 DUP1 DUP4 SLOAD DIV MUL DUP4 MSTORE SWAP2 PUSH1 0x20 ADD SWAP2 PUSH2 0x3DB JUMP JUMPDEST DUP3 ADD SWAP2 SWAP1 PUSH1 0x0 MSTORE PUSH1 0x20 PUSH1 0x0 KECCAK256 SWAP1 JUMPDEST DUP2 SLOAD DUP2 MSTORE SWAP1 PUSH1 0x1 ADD SWAP1 PUSH1 0x20 ADD DUP1 DUP4 GT PUSH2 0x3BE JUMPI DUP3 SWAP1 SUB PUSH1 0x1F AND DUP3 ADD SWAP2 JUMPDEST POP POP POP POP POP DUP2 JUMP JUMPDEST PUSH1 0x0 DUP1 SLOAD SWAP1 PUSH2 0x100 EXP SWAP1 DIV PUSH20 0xFFFFFFFFFFFFFFFFFFFFFFFFFFFFFFFFFFFFFFFF AND PUSH20 0xFFFFFFFFFFFFFFFFFFFFFFFFFFFFFFFFFFFFFFFF AND CALLER PUSH20 0xFFFFFFFFFFFFFFFFFFFFFFFFFFFFFFFFFFFFFFFF AND SUB PUSH2 0x43B JUMPI PUSH1 0x0 DUP1 REVERT JUMPDEST PUSH1 0x1 SLOAD NUMBER LT ISZERO PUSH2 0x44A JUMPI PUSH1 0x0 DUP1 REVERT JUMPDEST PUSH1 0x2 SLOAD NUMBER GT ISZERO PUSH2 0x459 JUMPI PUSH1 0x0 DUP1 REVERT JUMPDEST PUSH1 0x1 PUSH1 0x3 DUP2 GT ISZERO PUSH2 0x46D JUMPI PUSH2 0x46C PUSH2 0xB55 JUMP JUMPDEST JUMPDEST PUSH1 0x4 PUSH1 0x0 SWAP1 SLOAD SWAP1 PUSH2 0x100 EXP SWAP1 DIV PUSH1 0xFF AND PUSH1 0x3 DUP2 GT ISZERO PUSH2 0x48F JUMPI PUSH2 0x48E PUSH2 0xB55 JUMP JUMPDEST JUMPDEST EQ PUSH2 0x499 JUMPI PUSH1 0x0 DUP1 REVERT JUMPDEST PUSH1 0x64 CALLVALUE LT ISZERO PUSH2 0x4A7 JUMPI PUSH1 0x0 DUP1 REVERT JUMPDEST PUSH1 0x0 CALLVALUE PUSH1 0x7 PUSH1 0x0 CALLER PUSH20 0xFFFFFFFFFFFFFFFFFFFFFFFFFFFFFFFFFFFFFFFF AND PUSH20 0xFFFFFFFFFFFFFFFFFFFFFFFFFFFFFFFFFFFFFFFF AND DUP2 MSTORE PUSH1 0x20 ADD SWAP1 DUP2 MSTORE PUSH1 0x20 ADD PUSH1 0x0 KECCAK256 SLOAD PUSH2 0x4F4 SWAP2 SWAP1 PUSH2 0xD64 JUMP JUMPDEST SWAP1 POP PUSH1 0x5 SLOAD DUP2 GT PUSH2 0x504 JUMPI PUSH1 0x0 DUP1 REVERT JUMPDEST DUP1 PUSH1 0x7 PUSH1 0x0 CALLER PUSH20 0xFFFFFFFFFFFFFFFFFFFFFFFFFFFFFFFFFFFFFFFF AND PUSH20 0xFFFFFFFFFFFFFFFFFFFFFFFFFFFFFFFFFFFFFFFF AND DUP2 MSTORE PUSH1 0x20 ADD SWAP1 DUP2 MSTORE PUSH1 0x20 ADD PUSH1 0x0 KECCAK256 DUP2 SWAP1 SSTORE POP PUSH1 0x7 PUSH1 0x0 PUSH1 0x6 PUSH1 0x0 SWAP1 SLOAD SWAP1 PUSH2 0x100 EXP SWAP1 DIV PUSH20 0xFFFFFFFFFFFFFFFFFFFFFFFFFFFFFFFFFFFFFFFF AND PUSH20 0xFFFFFFFFFFFFFFFFFFFFFFFFFFFFFFFFFFFFFFFF AND PUSH20 0xFFFFFFFFFFFFFFFFFFFFFFFFFFFFFFFFFFFFFFFF AND DUP2 MSTORE PUSH1 0x20 ADD SWAP1 DUP2 MSTORE PUSH1 0x20 ADD PUSH1 0x0 KECCAK256 SLOAD DUP2 GT PUSH2 0x633 JUMPI PUSH2 0x628 PUSH1 0x8 SLOAD DUP3 PUSH2 0x5C1 SWAP2 SWAP1 PUSH2 0xD64 JUMP JUMPDEST PUSH1 0x7 PUSH1 0x0 PUSH1 0x6 PUSH1 0x0 SWAP1 SLOAD SWAP1 PUSH2 0x100 EXP SWAP1 DIV PUSH20 0xFFFFFFFFFFFFFFFFFFFFFFFFFFFFFFFFFFFFFFFF AND PUSH20 0xFFFFFFFFFFFFFFFFFFFFFFFFFFFFFFFFFFFFFFFF AND PUSH20 0xFFFFFFFFFFFFFFFFFFFFFFFFFFFFFFFFFFFFFFFF AND DUP2 MSTORE PUSH1 0x20 ADD SWAP1 DUP2 MSTORE PUSH1 0x20 ADD PUSH1 0x0 KECCAK256 SLOAD PUSH2 0xA76 JUMP JUMPDEST PUSH1 0x5 DUP2 SWAP1 SSTORE POP PUSH2 0x6F3 JUMP JUMPDEST PUSH2 0x6AB DUP2 PUSH1 0x8 SLOAD PUSH1 0x7 PUSH1 0x0 PUSH1 0x6 PUSH1 0x0 SWAP1 SLOAD SWAP1 PUSH2 0x100 EXP SWAP1 DIV PUSH20 0xFFFFFFFFFFFFFFFFFFFFFFFFFFFFFFFFFFFFFFFF AND PUSH20 0xFFFFFFFFFFFFFFFFFFFFFFFFFFFFFFFFFFFFFFFF AND PUSH20 0xFFFFFFFFFFFFFFFFFFFFFFFFFFFFFFFFFFFFFFFF AND DUP2 MSTORE PUSH1 0x20 ADD SWAP1 DUP2 MSTORE PUSH1 0x20 ADD PUSH1 0x0 KECCAK256 SLOAD PUSH2 0x6A6 SWAP2 SWAP1 PUSH2 0xD64 JUMP JUMPDEST PUSH2 0xA76 JUMP JUMPDEST PUSH1 0x5 DUP2 SWAP1 SSTORE POP CALLER PUSH1 0x6 PUSH1 0x0 PUSH2 0x100 EXP DUP2 SLOAD DUP2 PUSH20 0xFFFFFFFFFFFFFFFFFFFFFFFFFFFFFFFFFFFFFFFF MUL NOT AND SWAP1 DUP4 PUSH20 0xFFFFFFFFFFFFFFFFFFFFFFFFFFFFFFFFFFFFFFFF AND MUL OR SWAP1 SSTORE POP JUMPDEST POP JUMP JUMPDEST PUSH1 0x5 SLOAD DUP2 JUMP JUMPDEST PUSH1 0x3 DUP1 DUP2 GT ISZERO PUSH2 0x70F JUMPI PUSH2 0x70E PUSH2 0xB55 JUMP JUMPDEST JUMPDEST PUSH1 0x4 PUSH1 0x0 SWAP1 SLOAD SWAP1 PUSH2 0x100 EXP SWAP1 DIV PUSH1 0xFF AND PUSH1 0x3 DUP2 GT ISZERO PUSH2 0x731 JUMPI PUSH2 0x730 PUSH2 0xB55 JUMP JUMPDEST JUMPDEST EQ DUP1 PUSH2 0x73E JUMPI POP PUSH1 0x2 SLOAD NUMBER GT JUMPDEST PUSH2 0x747 JUMPI PUSH1 0x0 DUP1 REVERT JUMPDEST PUSH1 0x0 DUP1 SLOAD SWAP1 PUSH2 0x100 EXP SWAP1 DIV PUSH20 0xFFFFFFFFFFFFFFFFFFFFFFFFFFFFFFFFFFFFFFFF AND PUSH20 0xFFFFFFFFFFFFFFFFFFFFFFFFFFFFFFFFFFFFFFFF AND CALLER PUSH20 0xFFFFFFFFFFFFFFFFFFFFFFFFFFFFFFFFFFFFFFFF AND EQ DUP1 PUSH2 0x7E0 JUMPI POP PUSH1 0x0 PUSH1 0x7 PUSH1 0x0 CALLER PUSH20 0xFFFFFFFFFFFFFFFFFFFFFFFFFFFFFFFFFFFFFFFF AND PUSH20 0xFFFFFFFFFFFFFFFFFFFFFFFFFFFFFFFFFFFFFFFF AND DUP2 MSTORE PUSH1 0x20 ADD SWAP1 DUP2 MSTORE PUSH1 0x20 ADD PUSH1 0x0 KECCAK256 SLOAD GT JUMPDEST PUSH2 0x7E9 JUMPI PUSH1 0x0 DUP1 REVERT JUMPDEST PUSH1 0x0 DUP1 PUSH1 0x3 DUP1 DUP2 GT ISZERO PUSH2 0x7FF JUMPI PUSH2 0x7FE PUSH2 0xB55 JUMP JUMPDEST JUMPDEST PUSH1 0x4 PUSH1 0x0 SWAP1 SLOAD SWAP1 PUSH2 0x100 EXP SWAP1 DIV PUSH1 0xFF AND PUSH1 0x3 DUP2 GT ISZERO PUSH2 0x821 JUMPI PUSH2 0x820 PUSH2 0xB55 JUMP JUMPDEST JUMPDEST SUB PUSH2 0x82E JUMPI CALLER SWAP2 POP PUSH2 0x9E6 JUMP JUMPDEST PUSH1 0x0 DUP1 SLOAD SWAP1 PUSH2 0x100 EXP SWAP1 DIV PUSH20 0xFFFFFFFFFFFFFFFFFFFFFFFFFFFFFFFFFFFFFFFF AND PUSH20 0xFFFFFFFFFFFFFFFFFFFFFFFFFFFFFFFFFFFFFFFF AND CALLER PUSH20 0xFFFFFFFFFFFFFFFFFFFFFFFFFFFFFFFFFFFFFFFF AND SUB PUSH2 0x8AE JUMPI PUSH1 0x0 DUP1 SLOAD SWAP1 PUSH2 0x100 EXP SWAP1 DIV PUSH20 0xFFFFFFFFFFFFFFFFFFFFFFFFFFFFFFFFFFFFFFFF AND SWAP2 POP PUSH1 0x5 SLOAD SWAP1 POP PUSH2 0x9E5 JUMP JUMPDEST PUSH1 0x6 PUSH1 0x0 SWAP1 SLOAD SWAP1 PUSH2 0x100 EXP SWAP1 DIV PUSH20 0xFFFFFFFFFFFFFFFFFFFFFFFFFFFFFFFFFFFFFFFF AND PUSH20 0xFFFFFFFFFFFFFFFFFFFFFFFFFFFFFFFFFFFFFFFF AND CALLER PUSH20 0xFFFFFFFFFFFFFFFFFFFFFFFFFFFFFFFFFFFFFFFF AND SUB PUSH2 0x99E JUMPI PUSH1 0x6 PUSH1 0x0 SWAP1 SLOAD SWAP1 PUSH2 0x100 EXP SWAP1 DIV PUSH20 0xFFFFFFFFFFFFFFFFFFFFFFFFFFFFFFFFFFFFFFFF AND SWAP2 POP PUSH1 0x5 SLOAD PUSH1 0x7 PUSH1 0x0 PUSH1 0x6 PUSH1 0x0 SWAP1 SLOAD SWAP1 PUSH2 0x100 EXP SWAP1 DIV PUSH20 0xFFFFFFFFFFFFFFFFFFFFFFFFFFFFFFFFFFFFFFFF AND PUSH20 0xFFFFFFFFFFFFFFFFFFFFFFFFFFFFFFFFFFFFFFFF AND PUSH20 0xFFFFFFFFFFFFFFFFFFFFFFFFFFFFFFFFFFFFFFFF AND DUP2 MSTORE PUSH1 0x20 ADD SWAP1 DUP2 MSTORE PUSH1 0x20 ADD PUSH1 0x0 KECCAK256 SLOAD PUSH2 0x997 SWAP2 SWAP1 PUSH2 0xD98 JUMP JUMPDEST SWAP1 POP PUSH2 0x9E4 JUMP JUMPDEST CALLER SWAP2 POP PUSH1 0x7 PUSH1 0x0 CALLER PUSH20 0xFFFFFFFFFFFFFFFFFFFFFFFFFFFFFFFFFFFFFFFF AND PUSH20 0xFFFFFFFFFFFFFFFFFFFFFFFFFFFFFFFFFFFFFFFF AND DUP2 MSTORE PUSH1 0x20 ADD SWAP1 DUP2 MSTORE PUSH1 0x20 ADD PUSH1 0x0 KECCAK256 SLOAD SWAP1 POP JUMPDEST JUMPDEST JUMPDEST PUSH1 0x0 PUSH1 0x7 PUSH1 0x0 DUP5 PUSH20 0xFFFFFFFFFFFFFFFFFFFFFFFFFFFFFFFFFFFFFFFF AND PUSH20 0xFFFFFFFFFFFFFFFFFFFFFFFFFFFFFFFFFFFFFFFF AND DUP2 MSTORE PUSH1 0x20 ADD SWAP1 DUP2 MSTORE PUSH1 0x20 ADD PUSH1 0x0 KECCAK256 DUP2 SWAP1 SSTORE POP DUP2 PUSH20 0xFFFFFFFFFFFFFFFFFFFFFFFFFFFFFFFFFFFFFFFF AND PUSH2 0x8FC DUP3 SWAP1 DUP2 ISZERO MUL SWAP1 PUSH1 0x40 MLOAD PUSH1 0x0 PUSH1 0x40 MLOAD DUP1 DUP4 SUB DUP2 DUP6 DUP9 DUP9 CALL SWAP4 POP POP POP POP ISZERO DUP1 ISZERO PUSH2 0xA71 JUMPI RETURNDATASIZE PUSH1 0x0 DUP1 RETURNDATACOPY RETURNDATASIZE PUSH1 0x0 REVERT JUMPDEST POP POP POP JUMP JUMPDEST PUSH1 0x0 DUP2 DUP4 GT PUSH2 0xA87 JUMPI DUP3 SWAP1 POP PUSH2 0xA8B JUMP JUMPDEST DUP2 SWAP1 POP JUMPDEST SWAP3 SWAP2 POP POP JUMP JUMPDEST PUSH1 0x0 DUP2 SWAP1 POP SWAP2 SWAP1 POP JUMP JUMPDEST PUSH2 0xAA4 DUP2 PUSH2 0xA91 JUMP JUMPDEST DUP3 MSTORE POP POP JUMP JUMPDEST PUSH1 0x0 PUSH1 0x20 DUP3 ADD SWAP1 POP PUSH2 0xABF PUSH1 0x0 DUP4 ADD DUP5 PUSH2 0xA9B JUMP JUMPDEST SWAP3 SWAP2 POP POP JUMP JUMPDEST PUSH1 0x0 DUP1 REVERT JUMPDEST PUSH1 0x0 PUSH20 0xFFFFFFFFFFFFFFFFFFFFFFFFFFFFFFFFFFFFFFFF DUP3 AND SWAP1 POP SWAP2 SWAP1 POP JUMP JUMPDEST PUSH1 0x0 PUSH2 0xAF5 DUP3 PUSH2 0xACA JUMP JUMPDEST SWAP1 POP SWAP2 SWAP1 POP JUMP JUMPDEST PUSH2 0xB05 DUP2 PUSH2 0xAEA JUMP JUMPDEST DUP2 EQ PUSH2 0xB10 JUMPI PUSH1 0x0 DUP1 REVERT JUMPDEST POP JUMP JUMPDEST PUSH1 0x0 DUP2 CALLDATALOAD SWAP1 POP PUSH2 0xB22 DUP2 PUSH2 0xAFC JUMP JUMPDEST SWAP3 SWAP2 POP POP JUMP JUMPDEST PUSH1 0x0 PUSH1 0x20 DUP3 DUP5 SUB SLT ISZERO PUSH2 0xB3E JUMPI PUSH2 0xB3D PUSH2 0xAC5 JUMP JUMPDEST JUMPDEST PUSH1 0x0 PUSH2 0xB4C DUP5 DUP3 DUP6 ADD PUSH2 0xB13 JUMP JUMPDEST SWAP2 POP POP SWAP3 SWAP2 POP POP JUMP JUMPDEST PUSH32 0x4E487B7100000000000000000000000000000000000000000000000000000000 PUSH1 0x0 MSTORE PUSH1 0x21 PUSH1 0x4 MSTORE PUSH1 0x24 PUSH1 0x0 REVERT JUMPDEST PUSH1 0x4 DUP2 LT PUSH2 0xB95 JUMPI PUSH2 0xB94 PUSH2 0xB55 JUMP JUMPDEST JUMPDEST POP JUMP JUMPDEST PUSH1 0x0 DUP2 SWAP1 POP PUSH2 0xBA6 DUP3 PUSH2 0xB84 JUMP JUMPDEST SWAP2 SWAP1 POP JUMP JUMPDEST PUSH1 0x0 PUSH2 0xBB6 DUP3 PUSH2 0xB98 JUMP JUMPDEST SWAP1 POP SWAP2 SWAP1 POP JUMP JUMPDEST PUSH2 0xBC6 DUP2 PUSH2 0xBAB JUMP JUMPDEST DUP3 MSTORE POP POP JUMP JUMPDEST PUSH1 0x0 PUSH1 0x20 DUP3 ADD SWAP1 POP PUSH2 0xBE1 PUSH1 0x0 DUP4 ADD DUP5 PUSH2 0xBBD JUMP JUMPDEST SWAP3 SWAP2 POP POP JUMP JUMPDEST PUSH1 0x0 PUSH2 0xBF2 DUP3 PUSH2 0xACA JUMP JUMPDEST SWAP1 POP SWAP2 SWAP1 POP JUMP JUMPDEST PUSH2 0xC02 DUP2 PUSH2 0xBE7 JUMP JUMPDEST DUP3 MSTORE POP POP JUMP JUMPDEST PUSH1 0x0 PUSH1 0x20 DUP3 ADD SWAP1 POP PUSH2 0xC1D PUSH1 0x0 DUP4 ADD DUP5 PUSH2 0xBF9 JUMP JUMPDEST SWAP3 SWAP2 POP POP JUMP JUMPDEST PUSH1 0x0 DUP2 MLOAD SWAP1 POP SWAP2 SWAP1 POP JUMP JUMPDEST PUSH1 0x0 DUP3 DUP3 MSTORE PUSH1 0x20 DUP3 ADD SWAP1 POP SWAP3 SWAP2 POP POP JUMP JUMPDEST PUSH1 0x0 JUMPDEST DUP4 DUP2 LT ISZERO PUSH2 0xC5D JUMPI DUP1 DUP3 ADD MLOAD DUP2 DUP5 ADD MSTORE PUSH1 0x20 DUP2 ADD SWAP1 POP PUSH2 0xC42 JUMP JUMPDEST PUSH1 0x0 DUP5 DUP5 ADD MSTORE POP POP POP POP JUMP JUMPDEST PUSH1 0x0 PUSH1 0x1F NOT PUSH1 0x1F DUP4 ADD AND SWAP1 POP SWAP2 SWAP1 POP JUMP JUMPDEST PUSH1 0x0 PUSH2 0xC85 DUP3 PUSH2 0xC23 JUMP JUMPDEST PUSH2 0xC8F DUP2 DUP6 PUSH2 0xC2E JUMP JUMPDEST SWAP4 POP PUSH2 0xC9F DUP2 DUP6 PUSH1 0x20 DUP7 ADD PUSH2 0xC3F JUMP JUMPDEST PUSH2 0xCA8 DUP2 PUSH2 0xC69 JUMP JUMPDEST DUP5 ADD SWAP2 POP POP SWAP3 SWAP2 POP POP JUMP JUMPDEST PUSH1 0x0 PUSH1 0x20 DUP3 ADD SWAP1 POP DUP2 DUP2 SUB PUSH1 0x0 DUP4 ADD MSTORE PUSH2 0xCCD DUP2 DUP5 PUSH2 0xC7A JUMP JUMPDEST SWAP1 POP SWAP3 SWAP2 POP POP JUMP JUMPDEST PUSH32 0x4E487B7100000000000000000000000000000000000000000000000000000000 PUSH1 0x0 MSTORE PUSH1 0x22 PUSH1 0x4 MSTORE PUSH1 0x24 PUSH1 0x0 REVERT JUMPDEST PUSH1 0x0 PUSH1 0x2 DUP3 DIV SWAP1 POP PUSH1 0x1 DUP3 AND DUP1 PUSH2 0xD1C JUMPI PUSH1 0x7F DUP3 AND SWAP2 POP JUMPDEST PUSH1 0x20 DUP3 LT DUP2 SUB PUSH2 0xD2F JUMPI PUSH2 0xD2E PUSH2 0xCD5 JUMP JUMPDEST JUMPDEST POP SWAP2 SWAP1 POP JUMP JUMPDEST PUSH32 0x4E487B7100000000000000000000000000000000000000000000000000000000 PUSH1 0x0 MSTORE PUSH1 0x11 PUSH1 0x4 MSTORE PUSH1 0x24 PUSH1 0x0 REVERT JUMPDEST PUSH1 0x0 PUSH2 0xD6F DUP3 PUSH2 0xA91 JUMP JUMPDEST SWAP2 POP PUSH2 0xD7A DUP4 PUSH2 0xA91 JUMP JUMPDEST SWAP3 POP DUP3 DUP3 ADD SWAP1 POP DUP1 DUP3 GT ISZERO PUSH2 0xD92 JUMPI PUSH2 0xD91 PUSH2 0xD35 JUMP JUMPDEST JUMPDEST SWAP3 SWAP2 POP POP JUMP JUMPDEST PUSH1 0x0 PUSH2 0xDA3 DUP3 PUSH2 0xA91 JUMP JUMPDEST SWAP2 POP PUSH2 0xDAE DUP4 PUSH2 0xA91 JUMP JUMPDEST SWAP3 POP DUP3 DUP3 SUB SWAP1 POP DUP2 DUP2 GT ISZERO PUSH2 0xDC6 JUMPI PUSH2 0xDC5 PUSH2 0xD35 JUMP JUMPDEST JUMPDEST SWAP3 SWAP2 POP POP JUMP INVALID LOG2 PUSH5 0x6970667358 0x22 SLT KECCAK256 0x22 SGT 0x23 0xD 0xD3 GAS SDIV RETURN RETURN PUSH22 0x24B8C3AC51C2AB6DA93DFADBE9D0938839C80546B94B PUSH5 0x736F6C6343 STOP ADDMOD SGT STOP CALLER "
				},
				"gasEstimates": {
					"creation": {
						"codeDepositCost": "717200",
						"executionCost": "infinite",
						"totalCost": "infinite"
					},
					"external": {
						"auctionState()": "2627",
						"bids(address)": "2859",
						"cancelAuction()": "4534",
						"endBlock()": "2430",
						"finalizeAuction()": "infinite",
						"highestBidder()": "2536",
						"highestBindingBid()": "2517",
						"ipfsHash()": "infinite",
						"owner()": "2600",
						"placeBid()": "infinite",
						"startBlock()": "2452"
					},
					"internal": {
						"min(uint256,uint256)": "64"
					}
				},
				"methodIdentifiers": {
					"auctionState()": "7fb45099",
					"bids(address)": "62ea82db",
					"cancelAuction()": "8fa8b790",
					"endBlock()": "083c6323",
					"finalizeAuction()": "f77282ab",
					"highestBidder()": "91f90157",
					"highestBindingBid()": "f5b56c56",
					"ipfsHash()": "c623674f",
					"owner()": "8da5cb5b",
					"placeBid()": "ecfc7ecc",
					"startBlock()": "48cd4cb1"
				}
			},
			"storageLayout": {
				"storage": [
					{
						"astId": 3,
						"contract": "Auction.sol:Auction",
						"label": "owner",
						"offset": 0,
						"slot": "0",
						"type": "t_address_payable"
					},
					{
						"astId": 5,
						"contract": "Auction.sol:Auction",
						"label": "startBlock",
						"offset": 0,
						"slot": "1",
						"type": "t_uint256"
					},
					{
						"astId": 7,
						"contract": "Auction.sol:Auction",
						"label": "endBlock",
						"offset": 0,
						"slot": "2",
						"type": "t_uint256"
					},
					{
						"astId": 9,
						"contract": "Auction.sol:Auction",
						"label": "ipfsHash",
						"offset": 0,
						"slot": "3",
						"type": "t_string_storage"
					},
					{
						"astId": 17,
						"contract": "Auction.sol:Auction",
						"label": "auctionState",
						"offset": 0,
						"slot": "4",
						"type": "t_enum(State)14"
					},
					{
						"astId": 19,
						"contract": "Auction.sol:Auction",
						"label": "highestBindingBid",
						"offset": 0,
						"slot": "5",
						"type": "t_uint256"
					},
					{
						"astId": 21,
						"contract": "Auction.sol:Auction",
						"label": "highestBidder",
						"offset": 0,
						"slot": "6",
						"type": "t_address_payable"
					},
					{
						"astId": 25,
						"contract": "Auction.sol:Auction",
						"label": "bids",
						"offset": 0,
						"slot": "7",
						"type": "t_mapping(t_address,t_uint256)"
					},
					{
						"astId": 27,
						"contract": "Auction.sol:Auction",
						"label": "bidIncrement",
						"offset": 0,
						"slot": "8",
						"type": "t_uint256"
					}
				],
				"types": {
					"t_address": {
						"encoding": "inplace",
						"label": "address",
						"numberOfBytes": "20"
					},
					"t_address_payable": {
						"encoding": "inplace",
						"label": "address payable",
						"numberOfBytes": "20"
					},
					"t_enum(State)14": {
						"encoding": "inplace",
						"label": "enum Auction.State",
						"numberOfBytes": "1"
					},
					"t_mapping(t_address,t_uint256)": {
						"encoding": "mapping",
						"key": "t_address",
						"label": "mapping(address => uint256)",
						"numberOfBytes": "32",
						"value": "t_uint256"
					},
					"t_string_storage": {
						"encoding": "bytes",
						"label": "string",
						"numberOfBytes": "32"
					},
					"t_uint256": {
						"encoding": "inplace",
						"label": "uint256",
						"numberOfBytes": "32"
					}
				}
			},
			"userdoc": {
				"kind": "user",
				"methods": {},
				"version": 1
			}
		}
	}
}